{
  "address": "0x817105A0F1292B66C8345756eB53951dece08d90",
  "abi": [
    {
      "inputs": [],
      "stateMutability": "nonpayable",
      "type": "constructor"
    },
    {
      "inputs": [],
      "name": "AccessControlBadConfirmation",
      "type": "error"
    },
    {
      "inputs": [
        {
          "internalType": "address",
          "name": "account",
          "type": "address"
        },
        {
          "internalType": "bytes32",
          "name": "neededRole",
          "type": "bytes32"
        }
      ],
      "name": "AccessControlUnauthorizedAccount",
      "type": "error"
    },
    {
      "inputs": [
        {
          "internalType": "address",
          "name": "sender",
          "type": "address"
        },
        {
          "internalType": "uint256",
          "name": "balance",
          "type": "uint256"
        },
        {
          "internalType": "uint256",
          "name": "needed",
          "type": "uint256"
        },
        {
          "internalType": "uint256",
          "name": "tokenId",
          "type": "uint256"
        }
      ],
      "name": "ERC1155InsufficientBalance",
      "type": "error"
    },
    {
      "inputs": [
        {
          "internalType": "address",
          "name": "approver",
          "type": "address"
        }
      ],
      "name": "ERC1155InvalidApprover",
      "type": "error"
    },
    {
      "inputs": [
        {
          "internalType": "uint256",
          "name": "idsLength",
          "type": "uint256"
        },
        {
          "internalType": "uint256",
          "name": "valuesLength",
          "type": "uint256"
        }
      ],
      "name": "ERC1155InvalidArrayLength",
      "type": "error"
    },
    {
      "inputs": [
        {
          "internalType": "address",
          "name": "operator",
          "type": "address"
        }
      ],
      "name": "ERC1155InvalidOperator",
      "type": "error"
    },
    {
      "inputs": [
        {
          "internalType": "address",
          "name": "receiver",
          "type": "address"
        }
      ],
      "name": "ERC1155InvalidReceiver",
      "type": "error"
    },
    {
      "inputs": [
        {
          "internalType": "address",
          "name": "sender",
          "type": "address"
        }
      ],
      "name": "ERC1155InvalidSender",
      "type": "error"
    },
    {
      "inputs": [
        {
          "internalType": "address",
          "name": "operator",
          "type": "address"
        },
        {
          "internalType": "address",
          "name": "owner",
          "type": "address"
        }
      ],
      "name": "ERC1155MissingApprovalForAll",
      "type": "error"
    },
    {
      "anonymous": false,
      "inputs": [
        {
          "indexed": true,
          "internalType": "address",
          "name": "account",
          "type": "address"
        },
        {
          "indexed": true,
          "internalType": "address",
          "name": "operator",
          "type": "address"
        },
        {
          "indexed": false,
          "internalType": "bool",
          "name": "approved",
          "type": "bool"
        }
      ],
      "name": "ApprovalForAll",
      "type": "event"
    },
    {
      "anonymous": false,
      "inputs": [
        {
          "indexed": true,
          "internalType": "uint256",
          "name": "batchId",
          "type": "uint256"
        },
        {
          "indexed": false,
          "internalType": "string",
          "name": "batchName",
          "type": "string"
        },
        {
          "indexed": false,
          "internalType": "string",
          "name": "metadataCID",
          "type": "string"
        },
        {
          "indexed": true,
          "internalType": "address",
          "name": "distributor",
          "type": "address"
        }
      ],
      "name": "Distributed",
      "type": "event"
    },
    {
      "anonymous": false,
      "inputs": [
        {
          "indexed": true,
          "internalType": "uint256",
          "name": "batchId",
          "type": "uint256"
        },
        {
          "indexed": false,
          "internalType": "string",
          "name": "batchName",
          "type": "string"
        },
        {
          "indexed": false,
          "internalType": "string",
          "name": "metadataCID",
          "type": "string"
        },
        {
          "indexed": true,
          "internalType": "address",
          "name": "farmer",
          "type": "address"
        },
        {
          "indexed": true,
          "internalType": "enum CoffeeTracker.Region",
          "name": "region",
          "type": "uint8"
        },
        {
          "indexed": false,
          "internalType": "enum CoffeeTracker.Variety",
          "name": "variety",
          "type": "uint8"
        }
      ],
      "name": "Harvested",
      "type": "event"
    },
    {
      "anonymous": false,
      "inputs": [
        {
          "indexed": true,
          "internalType": "uint256",
          "name": "batchId",
          "type": "uint256"
        },
        {
          "indexed": false,
          "internalType": "string",
          "name": "batchName",
          "type": "string"
        },
        {
          "indexed": false,
          "internalType": "string",
          "name": "metadataCID",
          "type": "string"
        }
      ],
      "name": "MetadataUpdated",
      "type": "event"
    },
    {
      "anonymous": false,
      "inputs": [
        {
          "indexed": true,
          "internalType": "uint256",
          "name": "batchId",
          "type": "uint256"
        },
        {
          "indexed": false,
          "internalType": "string",
          "name": "batchName",
          "type": "string"
        },
        {
          "indexed": false,
          "internalType": "string",
          "name": "metadataCID",
          "type": "string"
        },
        {
          "indexed": true,
          "internalType": "address",
          "name": "processor",
          "type": "address"
        },
        {
          "indexed": false,
          "internalType": "enum CoffeeTracker.ProcessingMethod",
          "name": "processingMethod",
          "type": "uint8"
        }
      ],
      "name": "Processed",
      "type": "event"
    },
    {
      "anonymous": false,
      "inputs": [
        {
          "indexed": true,
          "internalType": "uint256",
          "name": "batchId",
          "type": "uint256"
        },
        {
          "indexed": false,
          "internalType": "string",
          "name": "batchName",
          "type": "string"
        },
        {
          "indexed": false,
          "internalType": "string",
          "name": "metadataCID",
          "type": "string"
        },
        {
          "indexed": true,
          "internalType": "address",
          "name": "roaster",
          "type": "address"
        },
        {
          "indexed": false,
          "internalType": "enum CoffeeTracker.RoastingMethod",
          "name": "roastingMethod",
          "type": "uint8"
        },
        {
          "indexed": false,
          "internalType": "enum CoffeeTracker.RoastLevel",
          "name": "roastLevel",
          "type": "uint8"
        }
      ],
      "name": "Roasted",
      "type": "event"
    },
    {
      "anonymous": false,
      "inputs": [
        {
          "indexed": true,
          "internalType": "bytes32",
          "name": "role",
          "type": "bytes32"
        },
        {
          "indexed": true,
          "internalType": "bytes32",
          "name": "previousAdminRole",
          "type": "bytes32"
        },
        {
          "indexed": true,
          "internalType": "bytes32",
          "name": "newAdminRole",
          "type": "bytes32"
        }
      ],
      "name": "RoleAdminChanged",
      "type": "event"
    },
    {
      "anonymous": false,
      "inputs": [
        {
          "indexed": true,
          "internalType": "bytes32",
          "name": "role",
          "type": "bytes32"
        },
        {
          "indexed": true,
          "internalType": "address",
          "name": "account",
          "type": "address"
        },
        {
          "indexed": true,
          "internalType": "address",
          "name": "sender",
          "type": "address"
        }
      ],
      "name": "RoleGranted",
      "type": "event"
    },
    {
      "anonymous": false,
      "inputs": [
        {
          "indexed": true,
          "internalType": "bytes32",
          "name": "role",
          "type": "bytes32"
        },
        {
          "indexed": true,
          "internalType": "address",
          "name": "account",
          "type": "address"
        },
        {
          "indexed": true,
          "internalType": "address",
          "name": "sender",
          "type": "address"
        }
      ],
      "name": "RoleRevoked",
      "type": "event"
    },
    {
      "anonymous": false,
      "inputs": [
        {
          "indexed": true,
          "internalType": "address",
          "name": "operator",
          "type": "address"
        },
        {
          "indexed": true,
          "internalType": "address",
          "name": "from",
          "type": "address"
        },
        {
          "indexed": true,
          "internalType": "address",
          "name": "to",
          "type": "address"
        },
        {
          "indexed": false,
          "internalType": "uint256[]",
          "name": "ids",
          "type": "uint256[]"
        },
        {
          "indexed": false,
          "internalType": "uint256[]",
          "name": "values",
          "type": "uint256[]"
        }
      ],
      "name": "TransferBatch",
      "type": "event"
    },
    {
      "anonymous": false,
      "inputs": [
        {
          "indexed": true,
          "internalType": "address",
          "name": "operator",
          "type": "address"
        },
        {
          "indexed": true,
          "internalType": "address",
          "name": "from",
          "type": "address"
        },
        {
          "indexed": true,
          "internalType": "address",
          "name": "to",
          "type": "address"
        },
        {
          "indexed": false,
          "internalType": "uint256",
          "name": "id",
          "type": "uint256"
        },
        {
          "indexed": false,
          "internalType": "uint256",
          "name": "value",
          "type": "uint256"
        }
      ],
      "name": "TransferSingle",
      "type": "event"
    },
    {
      "anonymous": false,
      "inputs": [
        {
          "indexed": false,
          "internalType": "string",
          "name": "value",
          "type": "string"
        },
        {
          "indexed": true,
          "internalType": "uint256",
          "name": "id",
          "type": "uint256"
        }
      ],
      "name": "URI",
      "type": "event"
    },
    {
      "anonymous": false,
      "inputs": [
        {
          "indexed": true,
          "internalType": "uint256",
          "name": "batchId",
          "type": "uint256"
        },
        {
          "indexed": false,
          "internalType": "string",
          "name": "batchName",
          "type": "string"
        },
        {
          "indexed": false,
          "internalType": "string",
          "name": "metadataCID",
          "type": "string"
        },
        {
          "indexed": true,
          "internalType": "address",
          "name": "verifier",
          "type": "address"
        }
      ],
      "name": "Verified",
      "type": "event"
    },
    {
      "stateMutability": "payable",
      "type": "fallback"
    },
    {
      "inputs": [],
      "name": "DEFAULT_ADMIN_ROLE",
      "outputs": [
        {
          "internalType": "bytes32",
          "name": "",
          "type": "bytes32"
        }
      ],
      "stateMutability": "view",
      "type": "function"
    },
    {
      "inputs": [],
      "name": "DISTRIBUTOR_ROLE",
      "outputs": [
        {
          "internalType": "bytes32",
          "name": "",
          "type": "bytes32"
        }
      ],
      "stateMutability": "view",
      "type": "function"
    },
    {
      "inputs": [],
      "name": "FARMER_ROLE",
      "outputs": [
        {
          "internalType": "bytes32",
          "name": "",
          "type": "bytes32"
        }
      ],
      "stateMutability": "view",
      "type": "function"
    },
    {
      "inputs": [],
      "name": "PROCESSOR_ROLE",
      "outputs": [
        {
          "internalType": "bytes32",
          "name": "",
          "type": "bytes32"
        }
      ],
      "stateMutability": "view",
      "type": "function"
    },
    {
      "inputs": [],
      "name": "ROASTER_ROLE",
      "outputs": [
        {
          "internalType": "bytes32",
          "name": "",
          "type": "bytes32"
        }
      ],
      "stateMutability": "view",
      "type": "function"
    },
    {
      "inputs": [
        {
          "internalType": "address",
          "name": "account",
          "type": "address"
        },
        {
          "internalType": "uint256",
          "name": "id",
          "type": "uint256"
        }
      ],
      "name": "balanceOf",
      "outputs": [
        {
          "internalType": "uint256",
          "name": "",
          "type": "uint256"
        }
      ],
      "stateMutability": "view",
      "type": "function"
    },
    {
      "inputs": [
        {
          "internalType": "address[]",
          "name": "accounts",
          "type": "address[]"
        },
        {
          "internalType": "uint256[]",
          "name": "ids",
          "type": "uint256[]"
        }
      ],
      "name": "balanceOfBatch",
      "outputs": [
        {
          "internalType": "uint256[]",
          "name": "",
          "type": "uint256[]"
        }
      ],
      "stateMutability": "view",
      "type": "function"
    },
    {
      "inputs": [
        {
          "internalType": "string",
          "name": "",
          "type": "string"
        }
      ],
      "name": "batchNameToId",
      "outputs": [
        {
          "internalType": "uint256",
          "name": "",
          "type": "uint256"
        }
      ],
      "stateMutability": "view",
      "type": "function"
    },
    {
      "inputs": [
        {
          "internalType": "uint256",
          "name": "_batchId",
          "type": "uint256"
        },
        {
          "internalType": "string",
          "name": "_metadataCID",
          "type": "string"
        }
      ],
      "name": "distributeBatch",
      "outputs": [],
      "stateMutability": "nonpayable",
      "type": "function"
    },
    {
      "inputs": [
        {
          "internalType": "uint256",
          "name": "_batchId",
          "type": "uint256"
        }
      ],
      "name": "getBatch",
      "outputs": [
        {
          "components": [
            {
              "internalType": "uint64",
              "name": "batchId",
              "type": "uint64"
            },
            {
              "internalType": "uint32",
              "name": "mintTimestamp",
              "type": "uint32"
            },
            {
              "internalType": "bool",
              "name": "verified",
              "type": "bool"
            },
            {
              "internalType": "enum CoffeeTracker.Region",
              "name": "region",
              "type": "uint8"
            },
            {
              "internalType": "enum CoffeeTracker.Variety",
              "name": "variety",
              "type": "uint8"
            },
            {
              "internalType": "enum CoffeeTracker.ProcessingMethod",
              "name": "processingMethod",
              "type": "uint8"
            },
            {
              "internalType": "enum CoffeeTracker.RoastingMethod",
              "name": "roastingMethod",
              "type": "uint8"
            },
            {
              "internalType": "enum CoffeeTracker.RoastLevel",
              "name": "roastLevel",
              "type": "uint8"
            },
            {
              "internalType": "address",
              "name": "farmer",
              "type": "address"
            },
            {
              "internalType": "address",
              "name": "processor",
              "type": "address"
            },
            {
              "internalType": "address",
              "name": "roaster",
              "type": "address"
            },
            {
              "internalType": "address",
              "name": "distributor",
              "type": "address"
            },
            {
              "internalType": "string",
              "name": "batchName",
              "type": "string"
            },
            {
              "internalType": "string",
              "name": "metadataCID",
              "type": "string"
            }
          ],
          "internalType": "struct CoffeeTracker.CoffeeBatch",
          "name": "",
          "type": "tuple"
        }
      ],
      "stateMutability": "view",
      "type": "function"
    },
    {
      "inputs": [
        {
          "internalType": "string",
          "name": "_batchName",
          "type": "string"
        }
      ],
      "name": "getBatchByName",
      "outputs": [
        {
          "components": [
            {
              "internalType": "uint64",
              "name": "batchId",
              "type": "uint64"
            },
            {
              "internalType": "uint32",
              "name": "mintTimestamp",
              "type": "uint32"
            },
            {
              "internalType": "bool",
              "name": "verified",
              "type": "bool"
            },
            {
              "internalType": "enum CoffeeTracker.Region",
              "name": "region",
              "type": "uint8"
            },
            {
              "internalType": "enum CoffeeTracker.Variety",
              "name": "variety",
              "type": "uint8"
            },
            {
              "internalType": "enum CoffeeTracker.ProcessingMethod",
              "name": "processingMethod",
              "type": "uint8"
            },
            {
              "internalType": "enum CoffeeTracker.RoastingMethod",
              "name": "roastingMethod",
              "type": "uint8"
            },
            {
              "internalType": "enum CoffeeTracker.RoastLevel",
              "name": "roastLevel",
              "type": "uint8"
            },
            {
              "internalType": "address",
              "name": "farmer",
              "type": "address"
            },
            {
              "internalType": "address",
              "name": "processor",
              "type": "address"
            },
            {
              "internalType": "address",
              "name": "roaster",
              "type": "address"
            },
            {
              "internalType": "address",
              "name": "distributor",
              "type": "address"
            },
            {
              "internalType": "string",
              "name": "batchName",
              "type": "string"
            },
            {
              "internalType": "string",
              "name": "metadataCID",
              "type": "string"
            }
          ],
          "internalType": "struct CoffeeTracker.CoffeeBatch",
          "name": "",
          "type": "tuple"
        }
      ],
      "stateMutability": "view",
      "type": "function"
    },
    {
      "inputs": [],
      "name": "getBatchCount",
      "outputs": [
        {
          "internalType": "uint256",
          "name": "",
          "type": "uint256"
        }
      ],
      "stateMutability": "view",
      "type": "function"
    },
    {
      "inputs": [
        {
          "internalType": "uint256",
          "name": "offset",
          "type": "uint256"
        },
        {
          "internalType": "uint256",
          "name": "limit",
          "type": "uint256"
        }
      ],
      "name": "getBatches",
      "outputs": [
        {
          "components": [
            {
              "internalType": "uint64",
              "name": "batchId",
              "type": "uint64"
            },
            {
              "internalType": "uint32",
              "name": "mintTimestamp",
              "type": "uint32"
            },
            {
              "internalType": "bool",
              "name": "verified",
              "type": "bool"
            },
            {
              "internalType": "enum CoffeeTracker.Region",
              "name": "region",
              "type": "uint8"
            },
            {
              "internalType": "enum CoffeeTracker.Variety",
              "name": "variety",
              "type": "uint8"
            },
            {
              "internalType": "enum CoffeeTracker.ProcessingMethod",
              "name": "processingMethod",
              "type": "uint8"
            },
            {
              "internalType": "enum CoffeeTracker.RoastingMethod",
              "name": "roastingMethod",
              "type": "uint8"
            },
            {
              "internalType": "enum CoffeeTracker.RoastLevel",
              "name": "roastLevel",
              "type": "uint8"
            },
            {
              "internalType": "address",
              "name": "farmer",
              "type": "address"
            },
            {
              "internalType": "address",
              "name": "processor",
              "type": "address"
            },
            {
              "internalType": "address",
              "name": "roaster",
              "type": "address"
            },
            {
              "internalType": "address",
              "name": "distributor",
              "type": "address"
            },
            {
              "internalType": "string",
              "name": "batchName",
              "type": "string"
            },
            {
              "internalType": "string",
              "name": "metadataCID",
              "type": "string"
            }
          ],
          "internalType": "struct CoffeeTracker.CoffeeBatch[]",
          "name": "",
          "type": "tuple[]"
        }
      ],
      "stateMutability": "view",
      "type": "function"
    },
    {
      "inputs": [],
      "name": "getFarmCount",
      "outputs": [
        {
          "internalType": "uint256",
          "name": "",
          "type": "uint256"
        }
      ],
      "stateMutability": "view",
      "type": "function"
    },
    {
      "inputs": [
        {
          "internalType": "bytes32",
          "name": "role",
          "type": "bytes32"
        }
      ],
      "name": "getRoleAdmin",
      "outputs": [
        {
          "internalType": "bytes32",
          "name": "",
          "type": "bytes32"
        }
      ],
      "stateMutability": "view",
      "type": "function"
    },
    {
      "inputs": [
        {
          "internalType": "address",
          "name": "account",
          "type": "address"
        }
      ],
      "name": "getRoles",
      "outputs": [
        {
          "internalType": "string[]",
          "name": "",
          "type": "string[]"
        }
      ],
      "stateMutability": "view",
      "type": "function"
    },
    {
      "inputs": [],
      "name": "getTransactionCount",
      "outputs": [
        {
          "internalType": "uint256",
          "name": "",
          "type": "uint256"
        }
      ],
      "stateMutability": "view",
      "type": "function"
    },
    {
      "inputs": [
        {
          "internalType": "address",
          "name": "user",
          "type": "address"
        }
      ],
      "name": "getUserBatches",
      "outputs": [
        {
          "components": [
            {
              "internalType": "uint64",
              "name": "batchId",
              "type": "uint64"
            },
            {
              "internalType": "uint32",
              "name": "mintTimestamp",
              "type": "uint32"
            },
            {
              "internalType": "bool",
              "name": "verified",
              "type": "bool"
            },
            {
              "internalType": "enum CoffeeTracker.Region",
              "name": "region",
              "type": "uint8"
            },
            {
              "internalType": "enum CoffeeTracker.Variety",
              "name": "variety",
              "type": "uint8"
            },
            {
              "internalType": "enum CoffeeTracker.ProcessingMethod",
              "name": "processingMethod",
              "type": "uint8"
            },
            {
              "internalType": "enum CoffeeTracker.RoastingMethod",
              "name": "roastingMethod",
              "type": "uint8"
            },
            {
              "internalType": "enum CoffeeTracker.RoastLevel",
              "name": "roastLevel",
              "type": "uint8"
            },
            {
              "internalType": "address",
              "name": "farmer",
              "type": "address"
            },
            {
              "internalType": "address",
              "name": "processor",
              "type": "address"
            },
            {
              "internalType": "address",
              "name": "roaster",
              "type": "address"
            },
            {
              "internalType": "address",
              "name": "distributor",
              "type": "address"
            },
            {
              "internalType": "string",
              "name": "batchName",
              "type": "string"
            },
            {
              "internalType": "string",
              "name": "metadataCID",
              "type": "string"
            }
          ],
          "internalType": "struct CoffeeTracker.CoffeeBatch[]",
          "name": "history",
          "type": "tuple[]"
        }
      ],
      "stateMutability": "view",
      "type": "function"
    },
    {
      "inputs": [
        {
          "internalType": "bytes32",
          "name": "role",
          "type": "bytes32"
        },
        {
          "internalType": "address",
          "name": "account",
          "type": "address"
        }
      ],
      "name": "grantRole",
      "outputs": [],
      "stateMutability": "nonpayable",
      "type": "function"
    },
    {
      "inputs": [
        {
          "internalType": "string",
          "name": "_batchName",
          "type": "string"
        },
        {
          "internalType": "enum CoffeeTracker.Region",
          "name": "_region",
          "type": "uint8"
        },
        {
          "internalType": "enum CoffeeTracker.Variety",
          "name": "_variety",
          "type": "uint8"
        },
        {
          "internalType": "string",
          "name": "_metadataCID",
          "type": "string"
        }
      ],
      "name": "harvestBatch",
      "outputs": [],
      "stateMutability": "nonpayable",
      "type": "function"
    },
    {
      "inputs": [
        {
          "internalType": "bytes32",
          "name": "role",
          "type": "bytes32"
        },
        {
          "internalType": "address",
          "name": "account",
          "type": "address"
        }
      ],
      "name": "hasRole",
      "outputs": [
        {
          "internalType": "bool",
          "name": "",
          "type": "bool"
        }
      ],
      "stateMutability": "view",
      "type": "function"
    },
    {
      "inputs": [
        {
          "internalType": "address",
          "name": "account",
          "type": "address"
        },
        {
          "internalType": "address",
          "name": "operator",
          "type": "address"
        }
      ],
      "name": "isApprovedForAll",
      "outputs": [
        {
          "internalType": "bool",
          "name": "",
          "type": "bool"
        }
      ],
      "stateMutability": "view",
      "type": "function"
    },
    {
      "inputs": [
        {
          "internalType": "uint256",
          "name": "_batchId",
          "type": "uint256"
        },
        {
          "internalType": "enum CoffeeTracker.ProcessingMethod",
          "name": "_processingMethod",
          "type": "uint8"
        },
        {
          "internalType": "string",
          "name": "_metadataCID",
          "type": "string"
        }
      ],
      "name": "processBatch",
      "outputs": [],
      "stateMutability": "nonpayable",
      "type": "function"
    },
    {
      "inputs": [
        {
          "internalType": "bytes32",
          "name": "role",
          "type": "bytes32"
        },
        {
          "internalType": "address",
          "name": "callerConfirmation",
          "type": "address"
        }
      ],
      "name": "renounceRole",
      "outputs": [],
      "stateMutability": "nonpayable",
      "type": "function"
    },
    {
      "inputs": [
        {
          "internalType": "bytes32",
          "name": "role",
          "type": "bytes32"
        },
        {
          "internalType": "address",
          "name": "account",
          "type": "address"
        }
      ],
      "name": "revokeRole",
      "outputs": [],
      "stateMutability": "nonpayable",
      "type": "function"
    },
    {
      "inputs": [
        {
          "internalType": "uint256",
          "name": "_batchId",
          "type": "uint256"
        },
        {
          "internalType": "enum CoffeeTracker.RoastingMethod",
          "name": "_roastingMethod",
          "type": "uint8"
        },
        {
          "internalType": "enum CoffeeTracker.RoastLevel",
          "name": "_roastLevel",
          "type": "uint8"
        },
        {
          "internalType": "string",
          "name": "_metadataCID",
          "type": "string"
        }
      ],
      "name": "roastBatch",
      "outputs": [],
      "stateMutability": "nonpayable",
      "type": "function"
    },
    {
      "inputs": [
        {
          "internalType": "address",
          "name": "",
          "type": "address"
        },
        {
          "internalType": "address",
          "name": "",
          "type": "address"
        },
        {
          "internalType": "uint256[]",
          "name": "",
          "type": "uint256[]"
        },
        {
          "internalType": "uint256[]",
          "name": "",
          "type": "uint256[]"
        },
        {
          "internalType": "bytes",
          "name": "",
          "type": "bytes"
        }
      ],
      "name": "safeBatchTransferFrom",
      "outputs": [],
      "stateMutability": "pure",
      "type": "function"
    },
    {
      "inputs": [
        {
          "internalType": "address",
          "name": "",
          "type": "address"
        },
        {
          "internalType": "address",
          "name": "",
          "type": "address"
        },
        {
          "internalType": "uint256",
          "name": "",
          "type": "uint256"
        },
        {
          "internalType": "uint256",
          "name": "",
          "type": "uint256"
        },
        {
          "internalType": "bytes",
          "name": "",
          "type": "bytes"
        }
      ],
      "name": "safeTransferFrom",
      "outputs": [],
      "stateMutability": "pure",
      "type": "function"
    },
    {
      "inputs": [
        {
          "internalType": "address",
          "name": "",
          "type": "address"
        },
        {
          "internalType": "bool",
          "name": "",
          "type": "bool"
        }
      ],
      "name": "setApprovalForAll",
      "outputs": [],
      "stateMutability": "pure",
      "type": "function"
    },
    {
      "inputs": [
        {
          "internalType": "bytes4",
          "name": "interfaceId",
          "type": "bytes4"
        }
      ],
      "name": "supportsInterface",
      "outputs": [
        {
          "internalType": "bool",
          "name": "",
          "type": "bool"
        }
      ],
      "stateMutability": "view",
      "type": "function"
    },
    {
      "inputs": [
        {
          "internalType": "uint256",
          "name": "_batchId",
          "type": "uint256"
        },
        {
          "internalType": "string",
          "name": "_metadataCID",
          "type": "string"
        }
      ],
      "name": "updateMetadataCID",
      "outputs": [],
      "stateMutability": "nonpayable",
      "type": "function"
    },
    {
      "inputs": [
        {
          "internalType": "uint256",
          "name": "_batchId",
          "type": "uint256"
        }
      ],
      "name": "uri",
      "outputs": [
        {
          "internalType": "string",
          "name": "",
          "type": "string"
        }
      ],
      "stateMutability": "view",
      "type": "function"
    },
    {
      "inputs": [
        {
          "internalType": "uint256",
          "name": "_batchId",
          "type": "uint256"
        }
      ],
      "name": "verifyBatch",
      "outputs": [],
      "stateMutability": "nonpayable",
      "type": "function"
    },
    {
      "stateMutability": "payable",
      "type": "receive"
    }
  ],
  "transactionHash": "0xdb36c3c805d1f57d2a97893398c6ec542d5c8d60137c8835ef0d2c644e5c94b2",
  "args": [],
  "numDeployments": 1,
  "solcInputHash": "ba14d522d36a93e97e12631274673bc1",
  "bytecode": "0x6080346101125760208101906001600160401b038211818310176100fc5760009160405252600254600181811c911680156100f2575b60208210146100dc57601f8111610092575b6000600255600160045561005a33610117565b5061006433610193565b5061006e3361024f565b50610078336102e7565b506100823361037f565b5060405161366a90816104188239f35b6002600052601f0160051c7f405787fa12a823e0f2b7631cc41b3ba8828b3321ca811111fa75cd3aa3bb5ace908101905b8181106100d05750610047565b600081556001016100c3565b634e487b7160e01b600052602260045260246000fd5b90607f1690610035565b634e487b7160e01b600052604160045260246000fd5b600080fd5b6001600160a01b0381166000908152600080516020613b02833981519152602052604090205460ff1661018d576001600160a01b03166000818152600080516020613b0283398151915260205260408120805460ff19166001179055339190600080516020613a828339815191528180a4600190565b50600090565b6001600160a01b03811660009081527fda3c6719008d8a83d65ee5d5f016ebf5e4d6f9514636c9c933d55d85fcd37426602052604090205460ff1661018d576001600160a01b031660008181527fda3c6719008d8a83d65ee5d5f016ebf5e4d6f9514636c9c933d55d85fcd3742660205260408120805460ff191660011790553391907f7c6181838a71a779e445600d4c6ecbe16bacf2b3c5bda69c29fada66d1b645d190600080516020613a828339815191529080a4600190565b6001600160a01b0381166000908152600080516020613ac2833981519152602052604090205460ff1661018d576001600160a01b03166000818152600080516020613ac283398151915260205260408120805460ff191660011790553391907fe61decff6e4a5c6b5a3d3cbd28f882e595173563b49353ce5f31dba2de7f05ee90600080516020613a828339815191529080a4600190565b6001600160a01b0381166000908152600080516020613ae2833981519152602052604090205460ff1661018d576001600160a01b03166000818152600080516020613ae283398151915260205260408120805460ff191660011790553391907f6833e94b5193c7a314af51094165d7809e1989f393a17eea242de8d46482826390600080516020613a828339815191529080a4600190565b6001600160a01b0381166000908152600080516020613aa2833981519152602052604090205460ff1661018d576001600160a01b03166000818152600080516020613aa283398151915260205260408120805460ff191660011790553391907ffbd454f36a7e1a388bd6fc3ab10d434aa4578f811acbbcf33afb1c697486313c90600080516020613a828339815191529080a460019056fe60806040526004361015610018575b36612fa857612fa8565b60003560e01c8062fdd58e1461022757806301ffc9a7146102225780630e89341c1461021d578063248a9ca3146102185780632b5d7071146102135780632e7700f01461020e5780632eb2c2d6146102095780632f2ff15d1461020457806336568abe146101ff57806339d9e8d8146101fa578063429692a7146101f55780634b386018146101f05780634e1273f4146101eb5780635ac44282146101e657806364b5169b146101e1578063666804c8146101dc5780638222bdb2146101d757806391d14854146101d25780639d0b25d3146101cd578063a217fddf146101c8578063a22cb465146101c3578063a8fabfa5146101be578063ce6ccfaf146101b9578063d547741f146101b4578063d913a08b146101af578063dfe25239146101aa578063dfe3a3ae146101a5578063e985e9c5146101a0578063f0bd87cc1461019b578063f242432a14610196578063f394397014610191578063fa2760e81461018c5763fc9f34ec0361000e576118d8565b61183e565b611803565b6117e1565b6117a6565b611755565b6116b8565b61167d565b61159a565b61155a565b6114d2565b6114a2565b611478565b61145c565b611292565b61123f565b611204565b61118a565b611121565b610f3f565b610cef565b610bee565b610bd0565b610a04565b61098b565b610946565b6108be565b610771565b610528565b6104bc565b6103b5565b6102d0565b610271565b600435906001600160a01b038216820361024257565b600080fd5b602435906001600160a01b038216820361024257565b35906001600160a01b038216820361024257565b346102425760403660031901126102425760206102b561028f61022c565b6024356000526000835260406000209060018060a01b0316600052602052604060002090565b54604051908152f35b6001600160e01b031981160361024257565b34610242576020366003190112610242576004356102ed816102be565b63ffffffff60e01b16637965db0b60e01b8114908115610316575b506040519015158152602090f35b636cdb3d1360e11b811491508115610348575b8115610337575b5038610308565b6301ffc9a760e01b14905038610330565b6303a24d0760e21b81149150610329565b60005b83811061036c5750506000910152565b818101518382015260200161035c565b9060209161039581518092818552858086019101610359565b601f01601f1916010190565b9060206103b292818152019061037c565b90565b34610242576020366003190112610242576004356001811015806104b1575b6103dd906118f0565b6000526007602052600660406000200160405166697066733a2f2f60c81b602082015260009180549061040f82611946565b916001811690811561048a575060011461044b575b6104478361043b818703601f1981018352826107a5565b604051918291826103a1565b0390f35b90925060005260206000206000905b8382106104735750509081016027019061043b81610424565b60018160209254602785870101520191019061045a565b6104479550849250602791509261043b9360ff191682840152801515028201019350610424565b5060045481106103d4565b346102425760203660031901126102425760206104e9600435600052600360205260016040600020015490565b604051908152f35b6005111561024257565b9181601f84011215610242578235916001600160401b038311610242576020838186019501011161024257565b3461024257608036600319011261024257602435600435610548826104f1565b6044356003811015610242576064356001600160401b038111610242577f2b1874df3b8e9b6e24335b43d893afa66a54456e0b7c8689c68a7a1f5d02d736916105986106b89236906004016104fb565b3360009081527f1b9d1fcffc58acc65f8868ffe423d8dc980481f751bbfc80745b6e3858f896316020526040902054909391929060ff16801561074b575b6105df90611980565b6105f3866000526007602052604060002090565b6001810154909790610613906001600160a01b039081165b1615156119d8565b600288015461063d90610636906001600160a01b03165b6001600160a01b031690565b1515611a30565b60038801805461068591906001600160a01b031680159081908115610738575b5080156106ef575b61066e90611a88565b6106d0575b80546001600160a01b03191633179055565b61068f8189611b1f565b6106998289611b43565b6106a7858560068b01611bb9565b6040519485946005339a0186611d2b565b0390a36106ce6106c9600554611d85565b600555565b005b3360009081526009602052604090206106ea908a90611aec565b610673565b5060008052600360205261066e61073161072a336000805160206136158339815191525b9060018060a01b0316600052602052604060002090565b5460ff1690565b9050610665565b6001600160a01b0316331490503861065d565b50336000908152600080516020613615833981519152602052604090205460ff166105d6565b34610242576000366003190112610242576020600554604051908152f35b634e487b7160e01b600052604160045260246000fd5b90601f801991011681019081106001600160401b038211176107c657604052565b61078f565b604051906107db6101c0836107a5565b565b6001600160401b0381116107c65760051b60200190565b9080601f8301121561024257813561080b816107dd565b9261081960405194856107a5565b81845260208085019260051b82010192831161024257602001905b8282106108415750505090565b8135815260209182019101610834565b6001600160401b0381116107c657601f01601f191660200190565b92919261087882610851565b9161088660405193846107a5565b829481845281830111610242578281602093846000960137010152565b9080601f83011215610242578160206103b29335910161086c565b346102425760a0366003190112610242576108d761022c565b506108e0610247565b506044356001600160401b038111610242576109009036906004016107f4565b506064356001600160401b038111610242576109209036906004016107f4565b506084356001600160401b038111610242576109409036906004016108a3565b50611d94565b34610242576040366003190112610242576106ce600435610965610247565b9061098661098182600052600360205260016040600020015490565b613039565b613076565b34610242576040366003190112610242576004356109a7610247565b336001600160a01b038216036109c0576106ce9161310a565b63334bd91960e11b60005260046000fd5b9060406003198301126102425760043591602435906001600160401b03821161024257610a00916004016104fb565b9091565b34610242577ff45b50d6124d88197575de4af5d672a278fd2910b16f8cfd2685cfa931402542610a33366109d1565b3360009081527fa857287e3de36733253088980c4a468b775596f21abbc1872f76602475acc5a7602052604090205491939160ff168015610baa575b610a7890611980565b610a8c836000526007602052604060002090565b6001810154909490610aa8906001600160a01b0390811661060b565b6002850154610ac390610636906001600160a01b031661062a565b6003850154610ae590610ade906001600160a01b031661062a565b1515611dd9565b600485018054610b2c91906001600160a01b031680159081908115610b97575b508015610b68575b610b1690611e30565b610b4e5780546001600160a01b03191633179055565b610b3a828260068801611bb9565b6106b8604051928392600533980184611e82565b3360009081526009602052604090206106ea908790611aec565b50600080526003602052610b16610b9061072a33600080516020613615833981519152610713565b9050610b0d565b6001600160a01b03163314905038610b05565b50336000908152600080516020613615833981519152602052604090205460ff16610a6f565b34610242576000366003190112610242576020600654604051908152f35b3461024257610bfc366109d1565b610c04612ff8565b600083815260076020526040902060018101546001600160a01b031615610c6d57610c688284610c5b6005957f4bb348c8e52124f1a18e983f64ad1bc5d380a3ca43654fbb2b8f73c71f3054599760068701611bb9565b6040519485940184611e82565b0390a2005b60405162461bcd60e51b8152602060048201526015602482015274426174636820646f6573206e6f742065786973742160581b6044820152606490fd5b906020808351928381520192019060005b818110610cc85750505090565b8251845260209384019390920191600101610cbb565b9060206103b2928181520190610caa565b34610242576040366003190112610242576004356001600160401b038111610242573660238201121561024257806004013590610d2b826107dd565b91610d3960405193846107a5565b8083526024602084019160051b8301019136831161024257602401905b828210610d9657836024356001600160401b0381116102425761044791610d84610d8a9236906004016107f4565b90611ec8565b60405191829182610cde565b60208091610da38461025d565b815201910190610d56565b634e487b7160e01b600052602160045260246000fd5b60091115610dce57565b610dae565b906009821015610dce5752565b600a1115610dce57565b90600a821015610dce5752565b60051115610dce57565b90610e0b82610df7565b52565b60031115610dce57565b906003821015610dce5752565b80516001600160401b031682526103b29160208281015163ffffffff1690820152604082810151151590820152610e6460608301516060830190610dd3565b610e7660808301516080830190610dea565b610e8860a083015160a0830190610e01565b610e9a60c083015160c0830190610e01565b610eac60e083015160e0830190610e18565b610100828101516001600160a01b031690820152610120828101516001600160a01b031690820152610140828101516001600160a01b031690820152610160828101516001600160a01b0316908201526101a0610f1c6101808401516101c06101808501526101c084019061037c565b920151906101a081840391015261037c565b9060206103b2928181520190610e25565b3461024257602036600319011261024257600435610f5b611f80565b506001811015806110b6575b610f70906118f0565b600052600760205261044760406000206110a46006610f8d6107cb565b9261103c6110338254610fb6610fa9826001600160401b031690565b6001600160401b03168852565b63ffffffff604082901c166020880152610fda606082901c60ff1615156040890152565b610fee606882901c60ff1660608901612003565b611002607082901c60ff166080890161200f565b611016607882901c60ff1660a0890161201b565b61102a608082901c60ff1660c0890161201b565b60881c60ff1690565b60e08601612024565b60018101546001600160a01b031661010085015260028101546001600160a01b031661012085015260038101546001600160a01b031661014085015260048101546001600160a01b031661016085015261109860058201612030565b61018085015201612030565b6101a082015260405191829182610f2e565b506004548110610f67565b602081016020825282518091526040820191602060408360051b8301019401926000915b8383106110f457505050505090565b9091929394602080611112600193603f198682030187528951610e25565b970193019301919392906110e5565b3461024257604036600319011261024257610447611143602435600435612230565b604051918291826110c1565b602060031982011261024257600435906001600160401b0382116102425780602383011215610242578160246103b29360040135910161086c565b34610242576111a961119b3661114f565b6111a3611f80565b506118b2565b5480156111cd57600052600760205261044760406000206110a46006610f8d6107cb565b60405162461bcd60e51b815260206004820152600f60248201526e10985d18da081b9bdd08199bdd5b99608a1b6044820152606490fd5b346102425760003660031901126102425760206040517fe61decff6e4a5c6b5a3d3cbd28f882e595173563b49353ce5f31dba2de7f05ee8152f35b3461024257604036600319011261024257602060ff611286600435611262610247565b906000526003845260406000209060018060a01b0316600052602052604060002090565b54166040519015158152f35b34610242576060366003190112610242576024356004356112b2826104f1565b6044356001600160401b038111610242576112f27f72080e4d0e0b72b4544393a55185e55cf3691ca48e32123c1d6803a03443e6be9136906004016104fb565b3360009081527fd64e3e54a870645dbbbb06c8ca5f35bdfb449049cb561e5977c00c5836c9cd32602052604090205490919060ff168015611436575b61133790611980565b6106b861134e856000526007602052604060002090565b600181015490969061136a906001600160a01b0390811661060b565b6002870180546113b191906001600160a01b031680159081908115611423575b5080156113f4575b61139b90612329565b6113da5780546001600160a01b03191633179055565b6113bb8188612379565b6113c9848460068a01611bb9565b60405193849360053399018561239d565b3360009081526009602052604090206106ea908990611aec565b5060008052600360205261139b61141c61072a33600080516020613615833981519152610713565b9050611392565b6001600160a01b0316331490503861138a565b50336000908152600080516020613615833981519152602052604090205460ff1661132e565b3461024257600036600319011261024257602060405160008152f35b346102425760403660031901126102425761149161022c565b5060243580151514611d9457600080fd5b346102425760003660031901126102425760045460001981019081116114cd57602090604051908152f35b611d6f565b34610242576020366003190112610242576114f36114ee61022c565b61254d565b6040518091602082016020835281518091526040830190602060408260051b8601019301916000905b82821061152b57505050500390f35b9193600191939550602061154a8192603f198a8203018652885161037c565b960192019201859493919261151c565b34610242576040366003190112610242576106ce600435611579610247565b9061159561098182600052600360205260016040600020015490565b61310a565b34610242576020366003190112610242576001600160a01b036115bb61022c565b16600052600960205260406000206040518082602082945493848152019060005260206000209260005b8181106116645750506115fa925003826107a5565b61160481516121c5565b9060005b8151811015611656578061163a61163561162460019486611eb4565b516000526007602052604060002090565b61204b565b6116448286611eb4565b5261164f8185611eb4565b5001611608565b6040518061044785826110c1565b84548352600194850194869450602090930192016115e5565b346102425760003660031901126102425760206040517f6833e94b5193c7a314af51094165d7809e1989f393a17eea242de8d4648282638152f35b34610242576020366003190112610242576004356116d4612ff8565b8060005260076020526040600020906116fa60018060a01b0360018401541615156119d8565b815461170c9060601c60ff16156129ad565b815460ff60601b1916600160601b1782557f6c16b69b06613b3d0d2cb41fe5d6c15b50a79444a2480db9ff79ff83f197e9d2604051806106b833956005600682019101836129fc565b3461024257604036600319011261024257602060ff61128661177561022c565b61177d610247565b6001600160a01b0391821660009081526001865260408082209290931681526020919091522090565b346102425760003660031901126102425760206040517ffbd454f36a7e1a388bd6fc3ab10d434aa4578f811acbbcf33afb1c697486313c8152f35b346102425760a0366003190112610242576117fa61022c565b50610920610247565b346102425760003660031901126102425760206040517f7c6181838a71a779e445600d4c6ecbe16bacf2b3c5bda69c29fada66d1b645d18152f35b34610242576080366003190112610242576004356001600160401b0381116102425761186e9036906004016104fb565b60243591600983101561024257604435600a81101561024257606435936001600160401b038511610242576118aa6106ce9536906004016104fb565b949093612a21565b60206118cb918160405193828580945193849201610359565b8101600881520301902090565b346102425760206102b56118eb3661114f565b6118b2565b156118f757565b60405162461bcd60e51b815260206004820152602160248201527f5468697320636f6666656520626174636820646f6573206e6f742065786973746044820152602160f81b6064820152608490fd5b90600182811c92168015611976575b602083101461196057565b634e487b7160e01b600052602260045260246000fd5b91607f1691611955565b1561198757565b60405162461bcd60e51b815260206004820152602360248201527f416363657373436f6e74726f6c3a20756e617574686f72697a6564206163636f6044820152621d5b9d60ea1b6064820152608490fd5b156119df57565b60405162461bcd60e51b8152602060048201526024808201527f5468697320636f66666565206261746368206d757374206265206861727665736044820152637465642160e01b6064820152608490fd5b15611a3757565b60405162461bcd60e51b8152602060048201526024808201527f5468697320636f66666565206261746368206d7573742062652070726f6365736044820152637365642160e01b6064820152608490fd5b15611a8f57565b60405162461bcd60e51b815260206004820152602b60248201526000805160206135f583398151915260448201526a656e20726f61737465642160a81b6064820152608490fd5b634e487b7160e01b600052603260045260246000fd5b805490680100000000000000008210156107c65760018201808255821015611b1a5760005260206000200155565b611ad6565b90611b2981610df7565b815460ff60801b191660809190911b60ff60801b16179055565b906003811015610dce57815460ff60881b191660889190911b60ff60881b16179055565b601f8211611b7457505050565b6000526020600020906020601f840160051c83019310611baf575b601f0160051c01905b818110611ba3575050565b60008155600101611b98565b9091508190611b8f565b9092916001600160401b0381116107c657611bde81611bd88454611946565b84611b67565b6000601f8211600114611c1f578190611c10939495600092611c14575b50508160011b916000199060031b1c19161790565b9055565b013590503880611bfb565b601f19821694611c3484600052602060002090565b91805b878110611c6f575083600195969710611c55575b505050811b019055565b0135600019600384901b60f8161c19169055388080611c4b565b90926020600181928686013581550194019101611c37565b60009291815491611c9783611946565b8083529260018116908115611ced5750600114611cb357505050565b60009081526020812093945091925b838310611cd3575060209250010190565b600181602092949394548385870101520191019190611cc2565b915050602093945060ff929192191683830152151560051b010190565b908060209392818452848401376000828201840152601f01601f1916010190565b906060926107db95979694611d4b611d5993608086526080860190611c87565b918483036020860152611d0a565b95611d6381610df7565b60408201520190610e18565b634e487b7160e01b600052601160045260246000fd5b60001981146114cd5760010190565b60405162461bcd60e51b815260206004820181905260248201527f4261746368204e46547320617265206e6f6e2d7472616e7366657261626c65216044820152606490fd5b15611de057565b60405162461bcd60e51b815260206004820152602260248201527f5468697320636f66666565206261746368206d75737420626520726f61737465604482015261642160f01b6064820152608490fd5b15611e3757565b60405162461bcd60e51b815260206004820152602f60248201526000805160206135f583398151915260448201526e656e2064697374726962757465642160881b6064820152608490fd5b91611e996103b29492604085526040850190611c87565b926020818503910152611d0a565b805115611b1a5760200190565b8051821015611b1a5760209160051b010190565b91909180518351808203611f69575050805190611ee4826107dd565b91611ef260405193846107a5565b808352611f01601f19916107dd565b0136602084013760005b8151811015611f625780611f5160019260051b60208082870101519189010151906000918252602082815260408084206001600160a01b03909316845291905290205490565b611f5b8286611eb4565b5201611f0b565b5090925050565b635b05999160e01b60005260045260245260446000fd5b604051906101c082018281106001600160401b038211176107c65760405260606101a08360008152600060208201526000604082015260008382015260006080820152600060a0820152600060c0820152600060e08201526000610100820152600061012082015260006101408201526000610160820152826101808201520152565b6009821015610dce5752565b600a821015610dce5752565b610e0b82610df7565b6003821015610dce5752565b906107db6120449260405193848092611c87565b03836107a5565b9061216760066120596107cb565b936120ff6120f68254612082612075826001600160401b031690565b6001600160401b03168952565b63ffffffff604082901c1660208901526120a6606082901c60ff16151560408a0152565b6120ba606882901c60ff1660608a01612003565b6120ce607082901c60ff1660808a0161200f565b6120e2607882901c60ff1660a08a0161201b565b61102a608082901c60ff1660c08a0161201b565b60e08701612024565b60018101546001600160a01b031661010086015260028101546001600160a01b031661012086015260038101546001600160a01b031661014086015260048101546001600160a01b031661016086015261215b60058201612030565b61018086015201612030565b6101a0830152565b6000198101919082116114cd57565b919082039182116114cd57565b6040519061219a6020836107a5565b600080835282815b8281106121ae57505050565b6020906121b9611f80565b828285010152016121a2565b906121cf826107dd565b6121dc60405191826107a5565b82815280926121ed601f19916107dd565b019060005b8281106121fe57505050565b602090612209611f80565b828285010152016121f2565b90600182018092116114cd57565b919082018092116114cd57565b919091606483116122f35761224660045461216f565b92838210156122e7576122599082612223565b928084116122df575b50612275612270828561217e565b6121c5565b9160005b612283838661217e565b8110156122d857826001826122b96116356122a96122a46122839787612223565b612215565b6000526007602052604060002090565b6122c38289611eb4565b526122ce8188611eb4565b5001915050612279565b5092505090565b925038612262565b505090506103b261218b565b60405162461bcd60e51b815260206004820152600e60248201526d098d2dad2e840e8dede40d0d2ced60931b6044820152606490fd5b1561233057565b60405162461bcd60e51b815260206004820152602d60248201526000805160206135f583398151915260448201526c656e2070726f6365737365642160981b6064820152608490fd5b9061238381610df7565b815460ff60781b191660789190911b60ff60781b16179055565b949392916040926123b96123c793606089526060890190611c87565b918783036020890152611d0a565b936123d183610df7565b0152565b604080519091906123e683826107a5565b6001815291601f19018260005b8281106123ff57505050565b8060606020809385010152016123f3565b9061241a826107dd565b61242760405191826107a5565b8281528092612438601f19916107dd565b019060005b82811061244957505050565b80606060208093850101520161243d565b604051906124696020836107a5565b60008252565b6040519061247e6040836107a5565b60048252632ab9b2b960e11b6020830152565b604051906124a06040836107a5565b600582526420b236b4b760d91b6020830152565b604051906124c36040836107a5565b60068252652330b936b2b960d11b6020830152565b604051906124e76040836107a5565b6009825268283937b1b2b9b9b7b960b91b6020830152565b6040519061250e6040836107a5565b60078252662937b0b9ba32b960c91b6020830152565b604051906125336040836107a5565b600b82526a2234b9ba3934b13aba37b960a91b6020830152565b6000808052600360205261257261072a83600080516020613615833981519152610713565b6129a5575b7f7c6181838a71a779e445600d4c6ecbe16bacf2b3c5bda69c29fada66d1b645d160005260036020526125cd61072a837fda3c6719008d8a83d65ee5d5f016ebf5e4d6f9514636c9c933d55d85fcd37426610713565b612997575b7fe61decff6e4a5c6b5a3d3cbd28f882e595173563b49353ce5f31dba2de7f05ee600052600360205261262861072a837fd64e3e54a870645dbbbb06c8ca5f35bdfb449049cb561e5977c00c5836c9cd32610713565b612989575b7f6833e94b5193c7a314af51094165d7809e1989f393a17eea242de8d464828263600052600360205261268361072a837f1b9d1fcffc58acc65f8868ffe423d8dc980481f751bbfc80745b6e3858f89631610713565b61297b575b7ffbd454f36a7e1a388bd6fc3ab10d434aa4578f811acbbcf33afb1c697486313c60005260036020526126de61072a837fa857287e3de36733253088980c4a468b775596f21abbc1872f76602475acc5a7610713565b61296d575b8015612948576126f290612410565b60008080526003602052909161271961072a82600080516020613615833981519152610713565b612919575b7f7c6181838a71a779e445600d4c6ecbe16bacf2b3c5bda69c29fada66d1b645d160005260036020526128849061072a9061277a82827fda3c6719008d8a83d65ee5d5f016ebf5e4d6f9514636c9c933d55d85fcd37426610713565b6128fe575b7fe61decff6e4a5c6b5a3d3cbd28f882e595173563b49353ce5f31dba2de7f05ee60005260036020526127d561072a827fd64e3e54a870645dbbbb06c8ca5f35bdfb449049cb561e5977c00c5836c9cd32610713565b6128e3575b7f6833e94b5193c7a314af51094165d7809e1989f393a17eea242de8d464828263600052600360205261283061072a827f1b9d1fcffc58acc65f8868ffe423d8dc980481f751bbfc80745b6e3858f89631610713565b6128b7575b7ffbd454f36a7e1a388bd6fc3ab10d434aa4578f811acbbcf33afb1c697486313c60005260036020527fa857287e3de36733253088980c4a468b775596f21abbc1872f76602475acc5a7610713565b61288c575090565b6128b39061289981611d85565b506128a2612524565b6128ac8285611eb4565b5282611eb4565b5090565b6128dd6128c385611d85565b946128cc6124ff565b6128d68289611eb4565b5286611eb4565b50612835565b6128f86128ef85611d85565b946128cc6124d8565b506127da565b61291361290a85611d85565b946128cc6124b4565b5061277f565b905061288461072a60019261292c612491565b61293586611ea7565b5261293f85611ea7565b5091505061271e565b50506129526123d5565b61295a61246f565b61296382611ea7565b526128b381611ea7565b61297690611d85565b6126e3565b61298490611d85565b612688565b61299290611d85565b61262d565b6129a090611d85565b6125d2565b506001612577565b156129b457565b60405162461bcd60e51b815260206004820152602c60248201526000805160206135f583398151915260448201526b656e2076657269666965642160a01b6064820152608490fd5b9091612a136103b293604084526040840190611c87565b916020818403910152611c87565b3360009081527fda3c6719008d8a83d65ee5d5f016ebf5e4d6f9514636c9c933d55d85fcd3742660205260409020546107db9694959394919391927fa2f86d05ea197a406c3babde961a05fa3b8037eace8041321e07a17cae0a65f1929160ff168015612c2f575b612a9290611980565b612aa6612a9f8287612c55565b5415612c6e565b612bc4600454978895612b62612aba6107cb565b6001600160401b03891681524263ffffffff16602082015260006040820152612ae68b60608301612003565b612af3846080830161200f565b600460a0820152600460c0820152600160e082015233610100820152600061012082015260006101408201526000610160820152612b3236878c61086c565b610180820152612b4336848961086c565b6101a0820152612b5d896000526007602052604060002090565b612dd6565b86612b6d858a612c55565b55336000908152600960205260409020612b88908890611aec565b336000908152600a60205260409020612ba890612ba49061072a565b1590565b612bf7575b612bb689610dc4565b604051948594339986612f73565b0390a4612bda612bd5600454611d85565b600455565b612be86106c9600554611d85565b612bf061245a565b9033613195565b336000908152600a60205260409020612c1790805460ff19166001179055565b612c2a612c25600654611d85565b600655565b612bad565b50336000908152600080516020613615833981519152602052604090205460ff16612a89565b6020908260405193849283378101600881520301902090565b15612c7557565b60405162461bcd60e51b815260206004820152602660248201527f5468697320636f66666565206261746368206e616d6520616c7265616479206560448201526578697374732160d01b6064820152608490fd5b906009811015610dce57815460ff60681b191660689190911b60ff60681b16179055565b90600a811015610dce57815460ff60701b191660709190911b60ff60701b16179055565b91909182516001600160401b0381116107c657612d3281611bd88454611946565b6020601f8211600114612d6e578190611c10939495600092612d635750508160011b916000199060031b1c19161790565b015190503880611bfb565b601f19821690612d8384600052602060002090565b9160005b818110612dbe57509583600195969710612da557505050811b019055565b015160001960f88460031b161c19169055388080611c4b565b9192602060018192868b015181550194019201612d87565b60066101a06107db93612e10612df382516001600160401b031690565b855467ffffffffffffffff19166001600160401b03909116178555565b612e4e612e24602083015163ffffffff1690565b85546bffffffff0000000000000000191660409190911b6bffffffff000000000000000016178555565b612e78612e5e6040830151151590565b855460ff60601b191690151560601b60ff60601b16178555565b612e8f6060820151612e8981610dc4565b85612cc9565b612ea66080820151612ea081610de0565b85612ced565b612ebd60a0820151612eb781610df7565b85612379565b612ed460c0820151612ece81610df7565b85611b1f565b612eeb60e0820151612ee581610e0e565b85611b43565b6101008101516001850180546001600160a01b039283166001600160a01b031991821617909155610120830151600287018054918416918316919091179055610140830151600387018054918416918316919091179055610160830151600487018054919093169116179055610180810151612f6a9060058601612d11565b01519101612d11565b9594926107db94612f92612fa09360409560608b5260608b0191611d0a565b9188830360208a0152611d0a565b940190610dea565b60405162461bcd60e51b815260206004820152602260248201527f436f6e747261637420646f6573206e6f7420616363657074207061796d656e74604482015261732160f01b6064820152608490fd5b336000908152600080516020613615833981519152602052604090205460ff161561301f57565b63e2517d3f60e01b60005233600452600060245260446000fd5b600081815260036020908152604080832033845290915290205460ff161561305e5750565b63e2517d3f60e01b6000523360045260245260446000fd5b60008181526003602090815260408083206001600160a01b038616845290915290205460ff166131035760008181526003602090815260408083206001600160a01b03861684529091529020805460ff1916600117905533916001600160a01b0316907f2f8788117e7eff1d82e926ec794901d17c78024a50270940304540a733656f0d600080a4600190565b5050600090565b60008181526003602090815260408083206001600160a01b038616845290915290205460ff16156131035760008181526003602090815260408083206001600160a01b03861684529091529020805460ff1916905533916001600160a01b0316907ff6391f5c32d9c69d2a47ea670b442974b53935d1edc7fd64eb21e047a839171b600080a4600190565b91926001600160a01b0383169291831561334a5760405194600186526020860191825260408601600181526060870190600182526080880180604052308814613308575087518151908181036132f157505060005b8851811015613231578060019160051b8a016132296132218a61071360606020860151950151946000526000602052604060002090565b918254612223565b9055016131ea565b509194939690929560018251146000146132b557600087517fc3d58168c5ae7397731d063d5bbf3d657854427343f4c083240f7aacaa2d0f6261328a875160405191829133958360209093929193604081019481520152565b0390a45b80516001036132a75750506107db93519051913361352e565b9150916107db9450336133f8565b60006040517f4a39dc06d4c0dbc64b70af90fd698a233a518aa5d07e595d983b8c0526c8f7fb3391806132e98888836135cf565b0390a461328e565b635b05999160e01b60005260045260245260446000fd5b62461bcd60e51b8152602060848a0181905260a48a01527f4261746368204e46547320617265206e6f6e2d7472616e7366657261626c652160c48a0152606490fd5b632bfa23e760e11b600052600060045260246000fd5b9081602091031261024257516103b2816102be565b6001600160a01b0391821681529116602082015260a0604082018190526103b294919391926133ba92916133ac9190860190610caa565b908482036060860152610caa565b91608081840391015261037c565b3d156133f3573d906133d982610851565b916133e760405193846107a5565b82523d6000602084013e565b606090565b939093929192843b61340c575b5050505050565b613430600092602094604051968795869563bc197c8160e01b875260048701613375565b038160006001600160a01b0387165af1600091816134c4575b5061348557506134576133c8565b805191908261347e57632bfa23e760e11b6000526001600160a01b03821660045260246000fd5b9050602001fd5b6001600160e01b0319166343e6837f60e01b016134a757503880808080613405565b632bfa23e760e11b6000526001600160a01b031660045260246000fd5b6134e791925060203d6020116134ee575b6134df81836107a5565b810190613360565b9038613449565b503d6134d5565b6001600160a01b039182168152911660208201526040810191909152606081019190915260a0608082018190526103b29291019061037c565b939093929192843b613541575050505050565b613565600092602094604051968795869563f23a6e6160e01b8752600487016134f5565b038160006001600160a01b0387165af1600091816135ae575b5061358c57506134576133c8565b6001600160e01b031916630dc5919f60e01b016134a757503880808080613405565b6135c891925060203d6020116134ee576134df81836107a5565b903861357e565b90916135e66103b293604084526040840190610caa565b916020818403910152610caa56fe5468697320636f666665652062617463682068617320616c72656164792062653617319a054d772f909f7c479a2cebe5066e836a939412e32403c99029b92effa26469706673582212200fc6d3686665e6a2afbb3f7d4c0290f39f20691a800847c44a8c3457d772ba4964736f6c634300081e00332f8788117e7eff1d82e926ec794901d17c78024a50270940304540a733656f0da857287e3de36733253088980c4a468b775596f21abbc1872f76602475acc5a7d64e3e54a870645dbbbb06c8ca5f35bdfb449049cb561e5977c00c5836c9cd321b9d1fcffc58acc65f8868ffe423d8dc980481f751bbfc80745b6e3858f896313617319a054d772f909f7c479a2cebe5066e836a939412e32403c99029b92eff",
  "devdoc": {
    "errors": {
      "AccessControlBadConfirmation()": [
        {
          "details": "The caller of a function is not the expected one. NOTE: Don't confuse with {AccessControlUnauthorizedAccount}."
        }
      ],
      "AccessControlUnauthorizedAccount(address,bytes32)": [
        {
          "details": "The `account` is missing a role."
        }
      ],
      "ERC1155InsufficientBalance(address,uint256,uint256,uint256)": [
        {
          "details": "Indicates an error related to the current `balance` of a `sender`. Used in transfers.",
          "params": {
            "balance": "Current balance for the interacting account.",
            "needed": "Minimum amount required to perform a transfer.",
            "sender": "Address whose tokens are being transferred.",
            "tokenId": "Identifier number of a token."
          }
        }
      ],
      "ERC1155InvalidApprover(address)": [
        {
          "details": "Indicates a failure with the `approver` of a token to be approved. Used in approvals.",
          "params": {
            "approver": "Address initiating an approval operation."
          }
        }
      ],
      "ERC1155InvalidArrayLength(uint256,uint256)": [
        {
          "details": "Indicates an array length mismatch between ids and values in a safeBatchTransferFrom operation. Used in batch transfers.",
          "params": {
            "idsLength": "Length of the array of token identifiers",
            "valuesLength": "Length of the array of token amounts"
          }
        }
      ],
      "ERC1155InvalidOperator(address)": [
        {
          "details": "Indicates a failure with the `operator` to be approved. Used in approvals.",
          "params": {
            "operator": "Address that may be allowed to operate on tokens without being their owner."
          }
        }
      ],
      "ERC1155InvalidReceiver(address)": [
        {
          "details": "Indicates a failure with the token `receiver`. Used in transfers.",
          "params": {
            "receiver": "Address to which tokens are being transferred."
          }
        }
      ],
      "ERC1155InvalidSender(address)": [
        {
          "details": "Indicates a failure with the token `sender`. Used in transfers.",
          "params": {
            "sender": "Address whose tokens are being transferred."
          }
        }
      ],
      "ERC1155MissingApprovalForAll(address,address)": [
        {
          "details": "Indicates a failure with the `operator`’s approval. Used in transfers.",
          "params": {
            "operator": "Address that may be allowed to operate on tokens without being their owner.",
            "owner": "Address of the current owner of a token."
          }
        }
      ]
    },
    "events": {
      "ApprovalForAll(address,address,bool)": {
        "details": "Emitted when `account` grants or revokes permission to `operator` to transfer their tokens, according to `approved`."
      },
      "RoleAdminChanged(bytes32,bytes32,bytes32)": {
        "details": "Emitted when `newAdminRole` is set as ``role``'s admin role, replacing `previousAdminRole` `DEFAULT_ADMIN_ROLE` is the starting admin for all roles, despite {RoleAdminChanged} not being emitted signaling this."
      },
      "RoleGranted(bytes32,address,address)": {
        "details": "Emitted when `account` is granted `role`. `sender` is the account that originated the contract call, an admin role bearer except when using {AccessControl-_setupRole}."
      },
      "RoleRevoked(bytes32,address,address)": {
        "details": "Emitted when `account` is revoked `role`. `sender` is the account that originated the contract call:   - if using `revokeRole`, it is the admin role bearer   - if using `renounceRole`, it is the role bearer (i.e. `account`)"
      },
      "TransferBatch(address,address,address,uint256[],uint256[])": {
        "details": "Equivalent to multiple {TransferSingle} events, where `operator`, `from` and `to` are the same for all transfers."
      },
      "TransferSingle(address,address,address,uint256,uint256)": {
        "details": "Emitted when `value` amount of tokens of type `id` are transferred from `from` to `to` by `operator`."
      },
      "URI(string,uint256)": {
        "details": "Emitted when the URI for token type `id` changes to `value`, if it is a non-programmatic URI. If an {URI} event was emitted for `id`, the standard https://eips.ethereum.org/EIPS/eip-1155#metadata-extensions[guarantees] that `value` will equal the value returned by {IERC1155MetadataURI-uri}."
      }
    },
    "kind": "dev",
    "methods": {
      "balanceOf(address,uint256)": {
        "details": "See {IERC1155-balanceOf}."
      },
      "balanceOfBatch(address[],uint256[])": {
        "details": "See {IERC1155-balanceOfBatch}. Requirements: - `accounts` and `ids` must have the same length."
      },
      "getRoleAdmin(bytes32)": {
        "details": "Returns the admin role that controls `role`. See {grantRole} and {revokeRole}. To change a role's admin, use {_setRoleAdmin}."
      },
      "grantRole(bytes32,address)": {
        "details": "Grants `role` to `account`. If `account` had not been already granted `role`, emits a {RoleGranted} event. Requirements: - the caller must have ``role``'s admin role. May emit a {RoleGranted} event."
      },
      "hasRole(bytes32,address)": {
        "details": "Returns `true` if `account` has been granted `role`."
      },
      "isApprovedForAll(address,address)": {
        "details": "See {IERC1155-isApprovedForAll}."
      },
      "renounceRole(bytes32,address)": {
        "details": "Revokes `role` from the calling account. Roles are often managed via {grantRole} and {revokeRole}: this function's purpose is to provide a mechanism for accounts to lose their privileges if they are compromised (such as when a trusted device is misplaced). If the calling account had been revoked `role`, emits a {RoleRevoked} event. Requirements: - the caller must be `callerConfirmation`. May emit a {RoleRevoked} event."
      },
      "revokeRole(bytes32,address)": {
        "details": "Revokes `role` from `account`. If `account` had been granted `role`, emits a {RoleRevoked} event. Requirements: - the caller must have ``role``'s admin role. May emit a {RoleRevoked} event."
      }
    },
    "version": 1
  },
  "userdoc": {
    "kind": "user",
    "methods": {},
    "version": 1
  },
  "storageLayout": {
    "storage": [
      {
        "astId": 557,
        "contract": "contracts/CoffeeTracker.sol:CoffeeTracker",
        "label": "_balances",
        "offset": 0,
        "slot": "0",
        "type": "t_mapping(t_uint256,t_mapping(t_address,t_uint256))"
      },
      {
        "astId": 563,
        "contract": "contracts/CoffeeTracker.sol:CoffeeTracker",
        "label": "_operatorApprovals",
        "offset": 0,
        "slot": "1",
        "type": "t_mapping(t_address,t_mapping(t_address,t_bool))"
      },
      {
        "astId": 565,
        "contract": "contracts/CoffeeTracker.sol:CoffeeTracker",
        "label": "_uri",
        "offset": 0,
        "slot": "2",
        "type": "t_string_storage"
      },
      {
        "astId": 26,
        "contract": "contracts/CoffeeTracker.sol:CoffeeTracker",
        "label": "_roles",
        "offset": 0,
        "slot": "3",
        "type": "t_mapping(t_bytes32,t_struct(RoleData)21_storage)"
      },
      {
        "astId": 3192,
        "contract": "contracts/CoffeeTracker.sol:CoffeeTracker",
        "label": "_batchIdCounter",
        "offset": 0,
        "slot": "4",
        "type": "t_uint256"
      },
      {
        "astId": 3194,
        "contract": "contracts/CoffeeTracker.sol:CoffeeTracker",
        "label": "_transactionCount",
        "offset": 0,
        "slot": "5",
        "type": "t_uint256"
      },
      {
        "astId": 3196,
        "contract": "contracts/CoffeeTracker.sol:CoffeeTracker",
        "label": "_farmCount",
        "offset": 0,
        "slot": "6",
        "type": "t_uint256"
      },
      {
        "astId": 3272,
        "contract": "contracts/CoffeeTracker.sol:CoffeeTracker",
        "label": "batches",
        "offset": 0,
        "slot": "7",
        "type": "t_mapping(t_uint256,t_struct(CoffeeBatch)3267_storage)"
      },
      {
        "astId": 3276,
        "contract": "contracts/CoffeeTracker.sol:CoffeeTracker",
        "label": "batchNameToId",
        "offset": 0,
        "slot": "8",
        "type": "t_mapping(t_string_memory_ptr,t_uint256)"
      },
      {
        "astId": 3281,
        "contract": "contracts/CoffeeTracker.sol:CoffeeTracker",
        "label": "userBatches",
        "offset": 0,
        "slot": "9",
        "type": "t_mapping(t_address,t_array(t_uint256)dyn_storage)"
      },
      {
        "astId": 3285,
        "contract": "contracts/CoffeeTracker.sol:CoffeeTracker",
        "label": "registeredFarms",
        "offset": 0,
        "slot": "10",
        "type": "t_mapping(t_address,t_bool)"
      }
    ],
    "types": {
      "t_address": {
        "encoding": "inplace",
        "label": "address",
        "numberOfBytes": "20"
      },
      "t_array(t_uint256)dyn_storage": {
        "base": "t_uint256",
        "encoding": "dynamic_array",
        "label": "uint256[]",
        "numberOfBytes": "32"
      },
      "t_bool": {
        "encoding": "inplace",
        "label": "bool",
        "numberOfBytes": "1"
      },
      "t_bytes32": {
        "encoding": "inplace",
        "label": "bytes32",
        "numberOfBytes": "32"
      },
      "t_enum(ProcessingMethod)3223": {
        "encoding": "inplace",
        "label": "enum CoffeeTracker.ProcessingMethod",
        "numberOfBytes": "1"
      },
      "t_enum(Region)3206": {
        "encoding": "inplace",
        "label": "enum CoffeeTracker.Region",
        "numberOfBytes": "1"
      },
      "t_enum(RoastLevel)3233": {
        "encoding": "inplace",
        "label": "enum CoffeeTracker.RoastLevel",
        "numberOfBytes": "1"
      },
      "t_enum(RoastingMethod)3229": {
        "encoding": "inplace",
        "label": "enum CoffeeTracker.RoastingMethod",
        "numberOfBytes": "1"
      },
      "t_enum(Variety)3217": {
        "encoding": "inplace",
        "label": "enum CoffeeTracker.Variety",
        "numberOfBytes": "1"
      },
      "t_mapping(t_address,t_array(t_uint256)dyn_storage)": {
        "encoding": "mapping",
        "key": "t_address",
        "label": "mapping(address => uint256[])",
        "numberOfBytes": "32",
        "value": "t_array(t_uint256)dyn_storage"
      },
      "t_mapping(t_address,t_bool)": {
        "encoding": "mapping",
        "key": "t_address",
        "label": "mapping(address => bool)",
        "numberOfBytes": "32",
        "value": "t_bool"
      },
      "t_mapping(t_address,t_mapping(t_address,t_bool))": {
        "encoding": "mapping",
        "key": "t_address",
        "label": "mapping(address => mapping(address => bool))",
        "numberOfBytes": "32",
        "value": "t_mapping(t_address,t_bool)"
      },
      "t_mapping(t_address,t_uint256)": {
        "encoding": "mapping",
        "key": "t_address",
        "label": "mapping(address => uint256)",
        "numberOfBytes": "32",
        "value": "t_uint256"
      },
      "t_mapping(t_bytes32,t_struct(RoleData)21_storage)": {
        "encoding": "mapping",
        "key": "t_bytes32",
        "label": "mapping(bytes32 => struct AccessControl.RoleData)",
        "numberOfBytes": "32",
        "value": "t_struct(RoleData)21_storage"
      },
      "t_mapping(t_string_memory_ptr,t_uint256)": {
        "encoding": "mapping",
        "key": "t_string_memory_ptr",
        "label": "mapping(string => uint256)",
        "numberOfBytes": "32",
        "value": "t_uint256"
      },
      "t_mapping(t_uint256,t_mapping(t_address,t_uint256))": {
        "encoding": "mapping",
        "key": "t_uint256",
        "label": "mapping(uint256 => mapping(address => uint256))",
        "numberOfBytes": "32",
        "value": "t_mapping(t_address,t_uint256)"
      },
      "t_mapping(t_uint256,t_struct(CoffeeBatch)3267_storage)": {
        "encoding": "mapping",
        "key": "t_uint256",
        "label": "mapping(uint256 => struct CoffeeTracker.CoffeeBatch)",
        "numberOfBytes": "32",
        "value": "t_struct(CoffeeBatch)3267_storage"
      },
      "t_string_memory_ptr": {
        "encoding": "bytes",
        "label": "string",
        "numberOfBytes": "32"
      },
      "t_string_storage": {
        "encoding": "bytes",
        "label": "string",
        "numberOfBytes": "32"
      },
      "t_struct(CoffeeBatch)3267_storage": {
        "encoding": "inplace",
        "label": "struct CoffeeTracker.CoffeeBatch",
        "members": [
          {
            "astId": 3235,
            "contract": "contracts/CoffeeTracker.sol:CoffeeTracker",
            "label": "batchId",
            "offset": 0,
            "slot": "0",
            "type": "t_uint64"
          },
          {
            "astId": 3237,
            "contract": "contracts/CoffeeTracker.sol:CoffeeTracker",
            "label": "mintTimestamp",
            "offset": 8,
            "slot": "0",
            "type": "t_uint32"
          },
          {
            "astId": 3239,
            "contract": "contracts/CoffeeTracker.sol:CoffeeTracker",
            "label": "verified",
            "offset": 12,
            "slot": "0",
            "type": "t_bool"
          },
          {
            "astId": 3242,
            "contract": "contracts/CoffeeTracker.sol:CoffeeTracker",
            "label": "region",
            "offset": 13,
            "slot": "0",
            "type": "t_enum(Region)3206"
          },
          {
            "astId": 3245,
            "contract": "contracts/CoffeeTracker.sol:CoffeeTracker",
            "label": "variety",
            "offset": 14,
            "slot": "0",
            "type": "t_enum(Variety)3217"
          },
          {
            "astId": 3248,
            "contract": "contracts/CoffeeTracker.sol:CoffeeTracker",
            "label": "processingMethod",
            "offset": 15,
            "slot": "0",
            "type": "t_enum(ProcessingMethod)3223"
          },
          {
            "astId": 3251,
            "contract": "contracts/CoffeeTracker.sol:CoffeeTracker",
            "label": "roastingMethod",
            "offset": 16,
            "slot": "0",
            "type": "t_enum(RoastingMethod)3229"
          },
          {
            "astId": 3254,
            "contract": "contracts/CoffeeTracker.sol:CoffeeTracker",
            "label": "roastLevel",
            "offset": 17,
            "slot": "0",
            "type": "t_enum(RoastLevel)3233"
          },
          {
            "astId": 3256,
            "contract": "contracts/CoffeeTracker.sol:CoffeeTracker",
            "label": "farmer",
            "offset": 0,
            "slot": "1",
            "type": "t_address"
          },
          {
            "astId": 3258,
            "contract": "contracts/CoffeeTracker.sol:CoffeeTracker",
            "label": "processor",
            "offset": 0,
            "slot": "2",
            "type": "t_address"
          },
          {
            "astId": 3260,
            "contract": "contracts/CoffeeTracker.sol:CoffeeTracker",
            "label": "roaster",
            "offset": 0,
            "slot": "3",
            "type": "t_address"
          },
          {
            "astId": 3262,
            "contract": "contracts/CoffeeTracker.sol:CoffeeTracker",
            "label": "distributor",
            "offset": 0,
            "slot": "4",
            "type": "t_address"
          },
          {
            "astId": 3264,
            "contract": "contracts/CoffeeTracker.sol:CoffeeTracker",
            "label": "batchName",
            "offset": 0,
            "slot": "5",
            "type": "t_string_storage"
          },
          {
            "astId": 3266,
            "contract": "contracts/CoffeeTracker.sol:CoffeeTracker",
            "label": "metadataCID",
            "offset": 0,
            "slot": "6",
            "type": "t_string_storage"
          }
        ],
        "numberOfBytes": "224"
      },
      "t_struct(RoleData)21_storage": {
        "encoding": "inplace",
        "label": "struct AccessControl.RoleData",
        "members": [
          {
            "astId": 18,
            "contract": "contracts/CoffeeTracker.sol:CoffeeTracker",
            "label": "hasRole",
            "offset": 0,
            "slot": "0",
            "type": "t_mapping(t_address,t_bool)"
          },
          {
            "astId": 20,
            "contract": "contracts/CoffeeTracker.sol:CoffeeTracker",
            "label": "adminRole",
            "offset": 0,
            "slot": "1",
            "type": "t_bytes32"
          }
        ],
        "numberOfBytes": "64"
      },
      "t_uint256": {
        "encoding": "inplace",
        "label": "uint256",
        "numberOfBytes": "32"
      },
      "t_uint32": {
        "encoding": "inplace",
        "label": "uint32",
        "numberOfBytes": "4"
      },
      "t_uint64": {
        "encoding": "inplace",
        "label": "uint64",
        "numberOfBytes": "8"
      }
    }
  }
}