{
  "address": "0xE16dd9938668D68fD94474D45383cbE7A5F104b7",
  "abi": [
    {
      "inputs": [],
      "stateMutability": "nonpayable",
      "type": "constructor"
    },
    {
      "inputs": [],
      "name": "AccessControlBadConfirmation",
      "type": "error"
    },
    {
      "inputs": [
        {
          "internalType": "address",
          "name": "account",
          "type": "address"
        },
        {
          "internalType": "bytes32",
          "name": "neededRole",
          "type": "bytes32"
        }
      ],
      "name": "AccessControlUnauthorizedAccount",
      "type": "error"
    },
    {
      "inputs": [
        {
          "internalType": "address",
          "name": "sender",
          "type": "address"
        },
        {
          "internalType": "uint256",
          "name": "balance",
          "type": "uint256"
        },
        {
          "internalType": "uint256",
          "name": "needed",
          "type": "uint256"
        },
        {
          "internalType": "uint256",
          "name": "tokenId",
          "type": "uint256"
        }
      ],
      "name": "ERC1155InsufficientBalance",
      "type": "error"
    },
    {
      "inputs": [
        {
          "internalType": "address",
          "name": "approver",
          "type": "address"
        }
      ],
      "name": "ERC1155InvalidApprover",
      "type": "error"
    },
    {
      "inputs": [
        {
          "internalType": "uint256",
          "name": "idsLength",
          "type": "uint256"
        },
        {
          "internalType": "uint256",
          "name": "valuesLength",
          "type": "uint256"
        }
      ],
      "name": "ERC1155InvalidArrayLength",
      "type": "error"
    },
    {
      "inputs": [
        {
          "internalType": "address",
          "name": "operator",
          "type": "address"
        }
      ],
      "name": "ERC1155InvalidOperator",
      "type": "error"
    },
    {
      "inputs": [
        {
          "internalType": "address",
          "name": "receiver",
          "type": "address"
        }
      ],
      "name": "ERC1155InvalidReceiver",
      "type": "error"
    },
    {
      "inputs": [
        {
          "internalType": "address",
          "name": "sender",
          "type": "address"
        }
      ],
      "name": "ERC1155InvalidSender",
      "type": "error"
    },
    {
      "inputs": [
        {
          "internalType": "address",
          "name": "operator",
          "type": "address"
        },
        {
          "internalType": "address",
          "name": "owner",
          "type": "address"
        }
      ],
      "name": "ERC1155MissingApprovalForAll",
      "type": "error"
    },
    {
      "anonymous": false,
      "inputs": [
        {
          "indexed": true,
          "internalType": "address",
          "name": "account",
          "type": "address"
        },
        {
          "indexed": true,
          "internalType": "address",
          "name": "operator",
          "type": "address"
        },
        {
          "indexed": false,
          "internalType": "bool",
          "name": "approved",
          "type": "bool"
        }
      ],
      "name": "ApprovalForAll",
      "type": "event"
    },
    {
      "anonymous": false,
      "inputs": [
        {
          "indexed": true,
          "internalType": "uint256",
          "name": "batchId",
          "type": "uint256"
        },
        {
          "indexed": false,
          "internalType": "string",
          "name": "batchNumber",
          "type": "string"
        },
        {
          "indexed": false,
          "internalType": "string",
          "name": "metadataCID",
          "type": "string"
        },
        {
          "indexed": true,
          "internalType": "address",
          "name": "distributor",
          "type": "address"
        }
      ],
      "name": "Distributed",
      "type": "event"
    },
    {
      "anonymous": false,
      "inputs": [
        {
          "indexed": true,
          "internalType": "uint256",
          "name": "batchId",
          "type": "uint256"
        },
        {
          "indexed": false,
          "internalType": "string",
          "name": "batchNumber",
          "type": "string"
        },
        {
          "indexed": false,
          "internalType": "string",
          "name": "metadataCID",
          "type": "string"
        },
        {
          "indexed": true,
          "internalType": "address",
          "name": "farmer",
          "type": "address"
        },
        {
          "indexed": true,
          "internalType": "enum CoffeeTracker.Region",
          "name": "region",
          "type": "uint8"
        },
        {
          "indexed": false,
          "internalType": "enum CoffeeTracker.Variety",
          "name": "variety",
          "type": "uint8"
        }
      ],
      "name": "Harvested",
      "type": "event"
    },
    {
      "anonymous": false,
      "inputs": [
        {
          "indexed": true,
          "internalType": "uint256",
          "name": "batchId",
          "type": "uint256"
        },
        {
          "indexed": false,
          "internalType": "string",
          "name": "batchNumber",
          "type": "string"
        },
        {
          "indexed": false,
          "internalType": "string",
          "name": "metadataCID",
          "type": "string"
        }
      ],
      "name": "MetadataUpdated",
      "type": "event"
    },
    {
      "anonymous": false,
      "inputs": [
        {
          "indexed": true,
          "internalType": "uint256",
          "name": "batchId",
          "type": "uint256"
        },
        {
          "indexed": false,
          "internalType": "string",
          "name": "batchNumber",
          "type": "string"
        },
        {
          "indexed": false,
          "internalType": "string",
          "name": "metadataCID",
          "type": "string"
        },
        {
          "indexed": true,
          "internalType": "address",
          "name": "processor",
          "type": "address"
        },
        {
          "indexed": false,
          "internalType": "enum CoffeeTracker.ProcessingMethod",
          "name": "processingMethod",
          "type": "uint8"
        }
      ],
      "name": "Processed",
      "type": "event"
    },
    {
      "anonymous": false,
      "inputs": [
        {
          "indexed": true,
          "internalType": "uint256",
          "name": "batchId",
          "type": "uint256"
        },
        {
          "indexed": false,
          "internalType": "string",
          "name": "batchNumber",
          "type": "string"
        },
        {
          "indexed": false,
          "internalType": "string",
          "name": "metadataCID",
          "type": "string"
        },
        {
          "indexed": true,
          "internalType": "address",
          "name": "roaster",
          "type": "address"
        },
        {
          "indexed": false,
          "internalType": "enum CoffeeTracker.RoastingMethod",
          "name": "roastingMethod",
          "type": "uint8"
        },
        {
          "indexed": false,
          "internalType": "enum CoffeeTracker.RoastLevel",
          "name": "roastLevel",
          "type": "uint8"
        }
      ],
      "name": "Roasted",
      "type": "event"
    },
    {
      "anonymous": false,
      "inputs": [
        {
          "indexed": true,
          "internalType": "bytes32",
          "name": "role",
          "type": "bytes32"
        },
        {
          "indexed": true,
          "internalType": "bytes32",
          "name": "previousAdminRole",
          "type": "bytes32"
        },
        {
          "indexed": true,
          "internalType": "bytes32",
          "name": "newAdminRole",
          "type": "bytes32"
        }
      ],
      "name": "RoleAdminChanged",
      "type": "event"
    },
    {
      "anonymous": false,
      "inputs": [
        {
          "indexed": true,
          "internalType": "bytes32",
          "name": "role",
          "type": "bytes32"
        },
        {
          "indexed": true,
          "internalType": "address",
          "name": "account",
          "type": "address"
        },
        {
          "indexed": true,
          "internalType": "address",
          "name": "sender",
          "type": "address"
        }
      ],
      "name": "RoleGranted",
      "type": "event"
    },
    {
      "anonymous": false,
      "inputs": [
        {
          "indexed": true,
          "internalType": "bytes32",
          "name": "role",
          "type": "bytes32"
        },
        {
          "indexed": true,
          "internalType": "address",
          "name": "account",
          "type": "address"
        },
        {
          "indexed": true,
          "internalType": "address",
          "name": "sender",
          "type": "address"
        }
      ],
      "name": "RoleRevoked",
      "type": "event"
    },
    {
      "anonymous": false,
      "inputs": [
        {
          "indexed": true,
          "internalType": "address",
          "name": "operator",
          "type": "address"
        },
        {
          "indexed": true,
          "internalType": "address",
          "name": "from",
          "type": "address"
        },
        {
          "indexed": true,
          "internalType": "address",
          "name": "to",
          "type": "address"
        },
        {
          "indexed": false,
          "internalType": "uint256[]",
          "name": "ids",
          "type": "uint256[]"
        },
        {
          "indexed": false,
          "internalType": "uint256[]",
          "name": "values",
          "type": "uint256[]"
        }
      ],
      "name": "TransferBatch",
      "type": "event"
    },
    {
      "anonymous": false,
      "inputs": [
        {
          "indexed": true,
          "internalType": "address",
          "name": "operator",
          "type": "address"
        },
        {
          "indexed": true,
          "internalType": "address",
          "name": "from",
          "type": "address"
        },
        {
          "indexed": true,
          "internalType": "address",
          "name": "to",
          "type": "address"
        },
        {
          "indexed": false,
          "internalType": "uint256",
          "name": "id",
          "type": "uint256"
        },
        {
          "indexed": false,
          "internalType": "uint256",
          "name": "value",
          "type": "uint256"
        }
      ],
      "name": "TransferSingle",
      "type": "event"
    },
    {
      "anonymous": false,
      "inputs": [
        {
          "indexed": false,
          "internalType": "string",
          "name": "value",
          "type": "string"
        },
        {
          "indexed": true,
          "internalType": "uint256",
          "name": "id",
          "type": "uint256"
        }
      ],
      "name": "URI",
      "type": "event"
    },
    {
      "anonymous": false,
      "inputs": [
        {
          "indexed": true,
          "internalType": "uint256",
          "name": "batchId",
          "type": "uint256"
        },
        {
          "indexed": false,
          "internalType": "string",
          "name": "batchNumber",
          "type": "string"
        },
        {
          "indexed": false,
          "internalType": "string",
          "name": "metadataCID",
          "type": "string"
        },
        {
          "indexed": true,
          "internalType": "address",
          "name": "verifier",
          "type": "address"
        }
      ],
      "name": "Verified",
      "type": "event"
    },
    {
      "stateMutability": "payable",
      "type": "fallback"
    },
    {
      "inputs": [],
      "name": "DEFAULT_ADMIN_ROLE",
      "outputs": [
        {
          "internalType": "bytes32",
          "name": "",
          "type": "bytes32"
        }
      ],
      "stateMutability": "view",
      "type": "function"
    },
    {
      "inputs": [],
      "name": "DISTRIBUTOR_ROLE",
      "outputs": [
        {
          "internalType": "bytes32",
          "name": "",
          "type": "bytes32"
        }
      ],
      "stateMutability": "view",
      "type": "function"
    },
    {
      "inputs": [],
      "name": "FARMER_ROLE",
      "outputs": [
        {
          "internalType": "bytes32",
          "name": "",
          "type": "bytes32"
        }
      ],
      "stateMutability": "view",
      "type": "function"
    },
    {
      "inputs": [],
      "name": "PROCESSOR_ROLE",
      "outputs": [
        {
          "internalType": "bytes32",
          "name": "",
          "type": "bytes32"
        }
      ],
      "stateMutability": "view",
      "type": "function"
    },
    {
      "inputs": [],
      "name": "ROASTER_ROLE",
      "outputs": [
        {
          "internalType": "bytes32",
          "name": "",
          "type": "bytes32"
        }
      ],
      "stateMutability": "view",
      "type": "function"
    },
    {
      "inputs": [
        {
          "internalType": "address",
          "name": "account",
          "type": "address"
        },
        {
          "internalType": "uint256",
          "name": "id",
          "type": "uint256"
        }
      ],
      "name": "balanceOf",
      "outputs": [
        {
          "internalType": "uint256",
          "name": "",
          "type": "uint256"
        }
      ],
      "stateMutability": "view",
      "type": "function"
    },
    {
      "inputs": [
        {
          "internalType": "address[]",
          "name": "accounts",
          "type": "address[]"
        },
        {
          "internalType": "uint256[]",
          "name": "ids",
          "type": "uint256[]"
        }
      ],
      "name": "balanceOfBatch",
      "outputs": [
        {
          "internalType": "uint256[]",
          "name": "",
          "type": "uint256[]"
        }
      ],
      "stateMutability": "view",
      "type": "function"
    },
    {
      "inputs": [
        {
          "internalType": "string",
          "name": "",
          "type": "string"
        }
      ],
      "name": "batchNumberToId",
      "outputs": [
        {
          "internalType": "uint256",
          "name": "",
          "type": "uint256"
        }
      ],
      "stateMutability": "view",
      "type": "function"
    },
    {
      "inputs": [
        {
          "internalType": "uint256",
          "name": "_batchId",
          "type": "uint256"
        },
        {
          "internalType": "string",
          "name": "_metadataCID",
          "type": "string"
        }
      ],
      "name": "distributeBatch",
      "outputs": [],
      "stateMutability": "nonpayable",
      "type": "function"
    },
    {
      "inputs": [
        {
          "internalType": "uint256",
          "name": "_batchId",
          "type": "uint256"
        }
      ],
      "name": "getBatch",
      "outputs": [
        {
          "components": [
            {
              "internalType": "uint64",
              "name": "batchId",
              "type": "uint64"
            },
            {
              "internalType": "uint32",
              "name": "mintTimestamp",
              "type": "uint32"
            },
            {
              "internalType": "bool",
              "name": "verified",
              "type": "bool"
            },
            {
              "internalType": "enum CoffeeTracker.Region",
              "name": "region",
              "type": "uint8"
            },
            {
              "internalType": "enum CoffeeTracker.Variety",
              "name": "variety",
              "type": "uint8"
            },
            {
              "internalType": "enum CoffeeTracker.ProcessingMethod",
              "name": "processingMethod",
              "type": "uint8"
            },
            {
              "internalType": "enum CoffeeTracker.RoastingMethod",
              "name": "roastingMethod",
              "type": "uint8"
            },
            {
              "internalType": "enum CoffeeTracker.RoastLevel",
              "name": "roastLevel",
              "type": "uint8"
            },
            {
              "internalType": "address",
              "name": "farmer",
              "type": "address"
            },
            {
              "internalType": "address",
              "name": "processor",
              "type": "address"
            },
            {
              "internalType": "address",
              "name": "roaster",
              "type": "address"
            },
            {
              "internalType": "address",
              "name": "distributor",
              "type": "address"
            },
            {
              "internalType": "string",
              "name": "batchNumber",
              "type": "string"
            },
            {
              "internalType": "string",
              "name": "metadataCID",
              "type": "string"
            }
          ],
          "internalType": "struct CoffeeTracker.CoffeeBatch",
          "name": "",
          "type": "tuple"
        }
      ],
      "stateMutability": "view",
      "type": "function"
    },
    {
      "inputs": [
        {
          "internalType": "string",
          "name": "_batchNumber",
          "type": "string"
        }
      ],
      "name": "getBatchByNumber",
      "outputs": [
        {
          "components": [
            {
              "internalType": "uint64",
              "name": "batchId",
              "type": "uint64"
            },
            {
              "internalType": "uint32",
              "name": "mintTimestamp",
              "type": "uint32"
            },
            {
              "internalType": "bool",
              "name": "verified",
              "type": "bool"
            },
            {
              "internalType": "enum CoffeeTracker.Region",
              "name": "region",
              "type": "uint8"
            },
            {
              "internalType": "enum CoffeeTracker.Variety",
              "name": "variety",
              "type": "uint8"
            },
            {
              "internalType": "enum CoffeeTracker.ProcessingMethod",
              "name": "processingMethod",
              "type": "uint8"
            },
            {
              "internalType": "enum CoffeeTracker.RoastingMethod",
              "name": "roastingMethod",
              "type": "uint8"
            },
            {
              "internalType": "enum CoffeeTracker.RoastLevel",
              "name": "roastLevel",
              "type": "uint8"
            },
            {
              "internalType": "address",
              "name": "farmer",
              "type": "address"
            },
            {
              "internalType": "address",
              "name": "processor",
              "type": "address"
            },
            {
              "internalType": "address",
              "name": "roaster",
              "type": "address"
            },
            {
              "internalType": "address",
              "name": "distributor",
              "type": "address"
            },
            {
              "internalType": "string",
              "name": "batchNumber",
              "type": "string"
            },
            {
              "internalType": "string",
              "name": "metadataCID",
              "type": "string"
            }
          ],
          "internalType": "struct CoffeeTracker.CoffeeBatch",
          "name": "",
          "type": "tuple"
        }
      ],
      "stateMutability": "view",
      "type": "function"
    },
    {
      "inputs": [],
      "name": "getBatchCount",
      "outputs": [
        {
          "internalType": "uint256",
          "name": "",
          "type": "uint256"
        }
      ],
      "stateMutability": "view",
      "type": "function"
    },
    {
      "inputs": [
        {
          "internalType": "uint256",
          "name": "offset",
          "type": "uint256"
        },
        {
          "internalType": "uint256",
          "name": "limit",
          "type": "uint256"
        }
      ],
      "name": "getBatches",
      "outputs": [
        {
          "components": [
            {
              "internalType": "uint64",
              "name": "batchId",
              "type": "uint64"
            },
            {
              "internalType": "uint32",
              "name": "mintTimestamp",
              "type": "uint32"
            },
            {
              "internalType": "bool",
              "name": "verified",
              "type": "bool"
            },
            {
              "internalType": "enum CoffeeTracker.Region",
              "name": "region",
              "type": "uint8"
            },
            {
              "internalType": "enum CoffeeTracker.Variety",
              "name": "variety",
              "type": "uint8"
            },
            {
              "internalType": "enum CoffeeTracker.ProcessingMethod",
              "name": "processingMethod",
              "type": "uint8"
            },
            {
              "internalType": "enum CoffeeTracker.RoastingMethod",
              "name": "roastingMethod",
              "type": "uint8"
            },
            {
              "internalType": "enum CoffeeTracker.RoastLevel",
              "name": "roastLevel",
              "type": "uint8"
            },
            {
              "internalType": "address",
              "name": "farmer",
              "type": "address"
            },
            {
              "internalType": "address",
              "name": "processor",
              "type": "address"
            },
            {
              "internalType": "address",
              "name": "roaster",
              "type": "address"
            },
            {
              "internalType": "address",
              "name": "distributor",
              "type": "address"
            },
            {
              "internalType": "string",
              "name": "batchNumber",
              "type": "string"
            },
            {
              "internalType": "string",
              "name": "metadataCID",
              "type": "string"
            }
          ],
          "internalType": "struct CoffeeTracker.CoffeeBatch[]",
          "name": "",
          "type": "tuple[]"
        }
      ],
      "stateMutability": "view",
      "type": "function"
    },
    {
      "inputs": [],
      "name": "getFarmCount",
      "outputs": [
        {
          "internalType": "uint256",
          "name": "",
          "type": "uint256"
        }
      ],
      "stateMutability": "view",
      "type": "function"
    },
    {
      "inputs": [
        {
          "internalType": "address",
          "name": "account",
          "type": "address"
        }
      ],
      "name": "getRole",
      "outputs": [
        {
          "internalType": "string",
          "name": "",
          "type": "string"
        }
      ],
      "stateMutability": "view",
      "type": "function"
    },
    {
      "inputs": [
        {
          "internalType": "bytes32",
          "name": "role",
          "type": "bytes32"
        }
      ],
      "name": "getRoleAdmin",
      "outputs": [
        {
          "internalType": "bytes32",
          "name": "",
          "type": "bytes32"
        }
      ],
      "stateMutability": "view",
      "type": "function"
    },
    {
      "inputs": [],
      "name": "getTransactionCount",
      "outputs": [
        {
          "internalType": "uint256",
          "name": "",
          "type": "uint256"
        }
      ],
      "stateMutability": "view",
      "type": "function"
    },
    {
      "inputs": [
        {
          "internalType": "address",
          "name": "user",
          "type": "address"
        }
      ],
      "name": "getUserBatches",
      "outputs": [
        {
          "internalType": "string",
          "name": "userRole",
          "type": "string"
        },
        {
          "components": [
            {
              "internalType": "uint64",
              "name": "batchId",
              "type": "uint64"
            },
            {
              "internalType": "uint32",
              "name": "mintTimestamp",
              "type": "uint32"
            },
            {
              "internalType": "bool",
              "name": "verified",
              "type": "bool"
            },
            {
              "internalType": "enum CoffeeTracker.Region",
              "name": "region",
              "type": "uint8"
            },
            {
              "internalType": "enum CoffeeTracker.Variety",
              "name": "variety",
              "type": "uint8"
            },
            {
              "internalType": "enum CoffeeTracker.ProcessingMethod",
              "name": "processingMethod",
              "type": "uint8"
            },
            {
              "internalType": "enum CoffeeTracker.RoastingMethod",
              "name": "roastingMethod",
              "type": "uint8"
            },
            {
              "internalType": "enum CoffeeTracker.RoastLevel",
              "name": "roastLevel",
              "type": "uint8"
            },
            {
              "internalType": "address",
              "name": "farmer",
              "type": "address"
            },
            {
              "internalType": "address",
              "name": "processor",
              "type": "address"
            },
            {
              "internalType": "address",
              "name": "roaster",
              "type": "address"
            },
            {
              "internalType": "address",
              "name": "distributor",
              "type": "address"
            },
            {
              "internalType": "string",
              "name": "batchNumber",
              "type": "string"
            },
            {
              "internalType": "string",
              "name": "metadataCID",
              "type": "string"
            }
          ],
          "internalType": "struct CoffeeTracker.CoffeeBatch[]",
          "name": "history",
          "type": "tuple[]"
        }
      ],
      "stateMutability": "view",
      "type": "function"
    },
    {
      "inputs": [
        {
          "internalType": "bytes32",
          "name": "role",
          "type": "bytes32"
        },
        {
          "internalType": "address",
          "name": "account",
          "type": "address"
        }
      ],
      "name": "grantRole",
      "outputs": [],
      "stateMutability": "nonpayable",
      "type": "function"
    },
    {
      "inputs": [
        {
          "internalType": "string",
          "name": "_batchNumber",
          "type": "string"
        },
        {
          "internalType": "enum CoffeeTracker.Region",
          "name": "_region",
          "type": "uint8"
        },
        {
          "internalType": "enum CoffeeTracker.Variety",
          "name": "_variety",
          "type": "uint8"
        },
        {
          "internalType": "string",
          "name": "_metadataCID",
          "type": "string"
        }
      ],
      "name": "harvestBatch",
      "outputs": [],
      "stateMutability": "nonpayable",
      "type": "function"
    },
    {
      "inputs": [
        {
          "internalType": "bytes32",
          "name": "role",
          "type": "bytes32"
        },
        {
          "internalType": "address",
          "name": "account",
          "type": "address"
        }
      ],
      "name": "hasRole",
      "outputs": [
        {
          "internalType": "bool",
          "name": "",
          "type": "bool"
        }
      ],
      "stateMutability": "view",
      "type": "function"
    },
    {
      "inputs": [
        {
          "internalType": "address",
          "name": "account",
          "type": "address"
        },
        {
          "internalType": "address",
          "name": "operator",
          "type": "address"
        }
      ],
      "name": "isApprovedForAll",
      "outputs": [
        {
          "internalType": "bool",
          "name": "",
          "type": "bool"
        }
      ],
      "stateMutability": "view",
      "type": "function"
    },
    {
      "inputs": [
        {
          "internalType": "uint256",
          "name": "_batchId",
          "type": "uint256"
        },
        {
          "internalType": "enum CoffeeTracker.ProcessingMethod",
          "name": "_processingMethod",
          "type": "uint8"
        },
        {
          "internalType": "string",
          "name": "_metadataCID",
          "type": "string"
        }
      ],
      "name": "processBatch",
      "outputs": [],
      "stateMutability": "nonpayable",
      "type": "function"
    },
    {
      "inputs": [
        {
          "internalType": "bytes32",
          "name": "role",
          "type": "bytes32"
        },
        {
          "internalType": "address",
          "name": "callerConfirmation",
          "type": "address"
        }
      ],
      "name": "renounceRole",
      "outputs": [],
      "stateMutability": "nonpayable",
      "type": "function"
    },
    {
      "inputs": [
        {
          "internalType": "bytes32",
          "name": "role",
          "type": "bytes32"
        },
        {
          "internalType": "address",
          "name": "account",
          "type": "address"
        }
      ],
      "name": "revokeRole",
      "outputs": [],
      "stateMutability": "nonpayable",
      "type": "function"
    },
    {
      "inputs": [
        {
          "internalType": "uint256",
          "name": "_batchId",
          "type": "uint256"
        },
        {
          "internalType": "enum CoffeeTracker.RoastingMethod",
          "name": "_roastingMethod",
          "type": "uint8"
        },
        {
          "internalType": "enum CoffeeTracker.RoastLevel",
          "name": "_roastLevel",
          "type": "uint8"
        },
        {
          "internalType": "string",
          "name": "_metadataCID",
          "type": "string"
        }
      ],
      "name": "roastBatch",
      "outputs": [],
      "stateMutability": "nonpayable",
      "type": "function"
    },
    {
      "inputs": [
        {
          "internalType": "address",
          "name": "",
          "type": "address"
        },
        {
          "internalType": "address",
          "name": "",
          "type": "address"
        },
        {
          "internalType": "uint256[]",
          "name": "",
          "type": "uint256[]"
        },
        {
          "internalType": "uint256[]",
          "name": "",
          "type": "uint256[]"
        },
        {
          "internalType": "bytes",
          "name": "",
          "type": "bytes"
        }
      ],
      "name": "safeBatchTransferFrom",
      "outputs": [],
      "stateMutability": "pure",
      "type": "function"
    },
    {
      "inputs": [
        {
          "internalType": "address",
          "name": "",
          "type": "address"
        },
        {
          "internalType": "address",
          "name": "",
          "type": "address"
        },
        {
          "internalType": "uint256",
          "name": "",
          "type": "uint256"
        },
        {
          "internalType": "uint256",
          "name": "",
          "type": "uint256"
        },
        {
          "internalType": "bytes",
          "name": "",
          "type": "bytes"
        }
      ],
      "name": "safeTransferFrom",
      "outputs": [],
      "stateMutability": "pure",
      "type": "function"
    },
    {
      "inputs": [
        {
          "internalType": "address",
          "name": "",
          "type": "address"
        },
        {
          "internalType": "bool",
          "name": "",
          "type": "bool"
        }
      ],
      "name": "setApprovalForAll",
      "outputs": [],
      "stateMutability": "pure",
      "type": "function"
    },
    {
      "inputs": [
        {
          "internalType": "bytes4",
          "name": "interfaceId",
          "type": "bytes4"
        }
      ],
      "name": "supportsInterface",
      "outputs": [
        {
          "internalType": "bool",
          "name": "",
          "type": "bool"
        }
      ],
      "stateMutability": "view",
      "type": "function"
    },
    {
      "inputs": [
        {
          "internalType": "uint256",
          "name": "_batchId",
          "type": "uint256"
        },
        {
          "internalType": "string",
          "name": "_metadataCID",
          "type": "string"
        }
      ],
      "name": "updateMetadataCID",
      "outputs": [],
      "stateMutability": "nonpayable",
      "type": "function"
    },
    {
      "inputs": [
        {
          "internalType": "uint256",
          "name": "_batchId",
          "type": "uint256"
        }
      ],
      "name": "uri",
      "outputs": [
        {
          "internalType": "string",
          "name": "",
          "type": "string"
        }
      ],
      "stateMutability": "view",
      "type": "function"
    },
    {
      "inputs": [
        {
          "internalType": "uint256",
          "name": "_batchId",
          "type": "uint256"
        }
      ],
      "name": "verifyBatch",
      "outputs": [],
      "stateMutability": "nonpayable",
      "type": "function"
    },
    {
      "stateMutability": "payable",
      "type": "receive"
    }
  ],
  "transactionHash": "0xa2878ffd5177e7a1315ae3e7550c2b5b37e2b7c144b773e301b69b98205b54ea",
  "args": [],
  "numDeployments": 1,
  "solcInputHash": "bdd243431bdb957c949dd031966cb8b3",
  "bytecode": "0x6080346101125760208101906001600160401b038211818310176100fc5760009160405252600254600181811c911680156100f2575b60208210146100dc57601f8111610092575b6000600255600160045561005a33610117565b5061006433610193565b5061006e3361024f565b50610078336102e7565b506100823361037f565b5060405161330290816104188239f35b6002600052601f0160051c7f405787fa12a823e0f2b7631cc41b3ba8828b3321ca811111fa75cd3aa3bb5ace908101905b8181106100d05750610047565b600081556001016100c3565b634e487b7160e01b600052602260045260246000fd5b90607f1690610035565b634e487b7160e01b600052604160045260246000fd5b600080fd5b6001600160a01b038116600090815260008051602061379a833981519152602052604090205460ff1661018d576001600160a01b0316600081815260008051602061379a83398151915260205260408120805460ff1916600117905533919060008051602061371a8339815191528180a4600190565b50600090565b6001600160a01b03811660009081527fda3c6719008d8a83d65ee5d5f016ebf5e4d6f9514636c9c933d55d85fcd37426602052604090205460ff1661018d576001600160a01b031660008181527fda3c6719008d8a83d65ee5d5f016ebf5e4d6f9514636c9c933d55d85fcd3742660205260408120805460ff191660011790553391907f7c6181838a71a779e445600d4c6ecbe16bacf2b3c5bda69c29fada66d1b645d19060008051602061371a8339815191529080a4600190565b6001600160a01b038116600090815260008051602061375a833981519152602052604090205460ff1661018d576001600160a01b0316600081815260008051602061375a83398151915260205260408120805460ff191660011790553391907fe61decff6e4a5c6b5a3d3cbd28f882e595173563b49353ce5f31dba2de7f05ee9060008051602061371a8339815191529080a4600190565b6001600160a01b038116600090815260008051602061377a833981519152602052604090205460ff1661018d576001600160a01b0316600081815260008051602061377a83398151915260205260408120805460ff191660011790553391907f6833e94b5193c7a314af51094165d7809e1989f393a17eea242de8d4648282639060008051602061371a8339815191529080a4600190565b6001600160a01b038116600090815260008051602061373a833981519152602052604090205460ff1661018d576001600160a01b0316600081815260008051602061373a83398151915260205260408120805460ff191660011790553391907ffbd454f36a7e1a388bd6fc3ab10d434aa4578f811acbbcf33afb1c697486313c9060008051602061371a8339815191529080a460019056fe60806040526004361015610018575b36612a7857612a78565b60003560e01c8062fdd58e1461022757806301ffc9a7146102225780630e89341c1461021d578063248a9ca3146102185780632b5d7071146102135780632e7700f01461020e5780632eb2c2d6146102095780632f2ff15d1461020457806336568abe146101ff57806339d9e8d8146101fa578063429692a7146101f557806344276733146101f05780634b386018146101eb5780634ca38da2146101e65780634e1273f4146101e15780635ac44282146101dc57806364b5169b146101d75780638222bdb2146101d257806391d14854146101cd5780639d0b25d3146101c8578063a217fddf146101c3578063a22cb465146101be578063a8fabfa5146101b9578063d547741f146101b4578063d913a08b146101af578063dfe25239146101aa578063dfe3a3ae146101a5578063e985e9c5146101a0578063f0bd87cc1461019b578063f242432a14610196578063f394397014610191578063f652c9111461018c5763fa2760e80361000e5761173b565b611723565b6116c2565b6116a0565b611665565b611614565b611577565b61153c565b61144c565b6113e7565b6113b7565b61138d565b611371565b611209565b6111b6565b61117b565b611145565b611093565b610fd4565b610dec565b610b64565b610b2c565b610b0e565b6109a2565b610929565b6108e4565b61085c565b61070f565b610528565b6104bc565b6103b5565b6102d0565b610271565b600435906001600160a01b038216820361024257565b600080fd5b602435906001600160a01b038216820361024257565b35906001600160a01b038216820361024257565b346102425760403660031901126102425760206102b561028f61022c565b6024356000526000835260406000209060018060a01b0316600052602052604060002090565b54604051908152f35b6001600160e01b031981160361024257565b34610242576020366003190112610242576004356102ed816102be565b63ffffffff60e01b16637965db0b60e01b8114908115610316575b506040519015158152602090f35b636cdb3d1360e11b811491508115610348575b8115610337575b5038610308565b6301ffc9a760e01b14905038610330565b6303a24d0760e21b81149150610329565b60005b83811061036c5750506000910152565b818101518382015260200161035c565b9060209161039581518092818552858086019101610359565b601f01601f1916010190565b9060206103b292818152019061037c565b90565b34610242576020366003190112610242576004356001811015806104b1575b6103dd906117af565b6000526007602052600660406000200160405166697066733a2f2f60c81b602082015260009180549061040f82611805565b916001811690811561048a575060011461044b575b6104478361043b818703601f198101835282610743565b604051918291826103a1565b0390f35b90925060005260206000206000905b8382106104735750509081016027019061043b81610424565b60018160209254602785870101520191019061045a565b6104479550849250602791509261043b9360ff191682840152801515028201019350610424565b5060045481106103d4565b346102425760203660031901126102425760206104e9600435600052600360205260016040600020015490565b604051908152f35b6005111561024257565b9181601f84011215610242578235916001600160401b038311610242576020838186019501011161024257565b3461024257608036600319011261024257602435600435610548826104f1565b6044356003811015610242576064356001600160401b038111610242577f2b1874df3b8e9b6e24335b43d893afa66a54456e0b7c8689c68a7a1f5d02d7369161059861067c9236906004016104fb565b9290916105a3612ac8565b6105b7866000526007602052604060002090565b60018101549097906105d7906001600160a01b039081165b16151561183f565b6002880154610601906105fa906001600160a01b03165b6001600160a01b031690565b1515611897565b60038801805461064991906001600160a01b0316801590819081156106fc575b5080156106b3575b610632906118ef565b610694575b80546001600160a01b03191633179055565b6106538189611986565b61065d82896119aa565b61066b858560068b01611a20565b6040519485946005339a0186611b92565b0390a361069261068d600554611bec565b600555565b005b3360009081526009602052604090206106ae908a90611953565b610637565b506000805260036020526106326106f56106ee336000805160206132ad8339815191525b9060018060a01b0316600052602052604060002090565b5460ff1690565b9050610629565b6001600160a01b03163314905038610621565b34610242576000366003190112610242576020600554604051908152f35b634e487b7160e01b600052604160045260246000fd5b90601f801991011681019081106001600160401b0382111761076457604052565b61072d565b604051906107796101c083610743565b565b6001600160401b0381116107645760051b60200190565b9080601f830112156102425781356107a98161077b565b926107b76040519485610743565b81845260208085019260051b82010192831161024257602001905b8282106107df5750505090565b81358152602091820191016107d2565b6001600160401b03811161076457601f01601f191660200190565b929192610816826107ef565b916108246040519384610743565b829481845281830111610242578281602093846000960137010152565b9080601f83011215610242578160206103b29335910161080a565b346102425760a03660031901126102425761087561022c565b5061087e610247565b506044356001600160401b0381116102425761089e903690600401610792565b506064356001600160401b038111610242576108be903690600401610792565b506084356001600160401b038111610242576108de903690600401610841565b50611bfb565b3461024257604036600319011261024257610692600435610903610247565b9061092461091f82600052600360205260016040600020015490565b612cd1565b612d0e565b3461024257604036600319011261024257600435610945610247565b336001600160a01b0382160361095e5761069291612da2565b63334bd91960e11b60005260046000fd5b9060406003198301126102425760043591602435906001600160401b0382116102425761099e916004016104fb565b9091565b34610242577ff45b50d6124d88197575de4af5d672a278fd2910b16f8cfd2685cfa9314025426109d13661096f565b6109dc939193612b3a565b6109f0836000526007602052604060002090565b6001810154909490610a0c906001600160a01b039081166105cf565b6002850154610a27906105fa906001600160a01b03166105ee565b6003850154610a4990610a42906001600160a01b03166105ee565b1515611c40565b600485018054610a9091906001600160a01b031680159081908115610afb575b508015610acc575b610a7a90611c97565b610ab25780546001600160a01b03191633179055565b610a9e828260068801611a20565b61067c604051928392600533980184611ce9565b3360009081526009602052604090206106ae908790611953565b50600080526003602052610a7a610af46106ee336000805160206132ad8339815191526106d7565b9050610a71565b6001600160a01b03163314905038610a69565b34610242576000366003190112610242576020600654604051908152f35b3461024257602036600319011261024257610447610b50610b4b61022c565b611dde565b60405191829160208352602083019061037c565b3461024257610b723661096f565b610b7a612bac565b600083815260076020526040902060018101546001600160a01b031615610be357610bde8284610bd16005957f4bb348c8e52124f1a18e983f64ad1bc5d380a3ca43654fbb2b8f73c71f3054599760068701611a20565b6040519485940184611ce9565b0390a2005b60405162461bcd60e51b8152602060048201526015602482015274426174636820646f6573206e6f742065786973742160581b6044820152606490fd5b602060031982011261024257600435906001600160401b0382116102425780602383011215610242578160246103b29360040135910161080a565b634e487b7160e01b600052602160045260246000fd5b60091115610c7b57565b610c5b565b906009821015610c7b5752565b600a1115610c7b57565b90600a821015610c7b5752565b60051115610c7b57565b90610cb882610ca4565b52565b60031115610c7b57565b906003821015610c7b5752565b80516001600160401b031682526103b29160208281015163ffffffff1690820152604082810151151590820152610d1160608301516060830190610c80565b610d2360808301516080830190610c97565b610d3560a083015160a0830190610cae565b610d4760c083015160c0830190610cae565b610d5960e083015160e0830190610cc5565b610100828101516001600160a01b031690820152610120828101516001600160a01b031690820152610140828101516001600160a01b031690820152610160828101516001600160a01b0316908201526101a0610dc96101808401516101c06101808501526101c084019061037c565b920151906101a081840391015261037c565b9060206103b2928181520190610cd2565b3461024257610e0b610dfd36610c20565b610e05611fbf565b506116fd565b548015610f585760005260076020526104476040600020610f466006610e2f610769565b92610ede610ed58254610e58610e4b826001600160401b031690565b6001600160401b03168852565b63ffffffff604082901c166020880152610e7c606082901c60ff1615156040890152565b610e90606882901c60ff1660608901612042565b610ea4607082901c60ff166080890161204e565b610eb8607882901c60ff1660a0890161205a565b610ecc608082901c60ff1660c0890161205a565b60881c60ff1690565b60e08601612063565b60018101546001600160a01b031661010085015260028101546001600160a01b031661012085015260038101546001600160a01b031661014085015260048101546001600160a01b0316610160850152610f3a6005820161206f565b6101808501520161206f565b6101a082015260405191829182610ddb565b60405162461bcd60e51b815260206004820152600f60248201526e10985d18da081b9bdd08199bdd5b99608a1b6044820152606490fd5b906020808351928381520192019060005b818110610fad5750505090565b8251845260209384019390920191600101610fa0565b9060206103b2928181520190610f8f565b34610242576040366003190112610242576004356001600160401b0381116102425736602382011215610242578060040135906110108261077b565b9161101e6040519384610743565b8083526024602084019160051b8301019136831161024257602401905b82821061107b57836024356001600160401b038111610242576104479161106961106f923690600401610792565b906121c2565b60405191829182610fc3565b602080916110888461025d565b81520191019061103b565b34610242576020366003190112610242576004356110af611fbf565b506001811015806110e1575b6110c4906117af565b60005260076020526104476040600020610f466006610e2f610769565b5060045481106110bb565b9080602083519182815201916020808360051b8301019401926000915b83831061111857505050505090565b9091929394602080611136600193601f198682030187528951610cd2565b97019301930191939290611109565b346102425760403660031901126102425761044761116760243560043561233b565b6040519182916020835260208301906110ec565b346102425760003660031901126102425760206040517fe61decff6e4a5c6b5a3d3cbd28f882e595173563b49353ce5f31dba2de7f05ee8152f35b3461024257604036600319011261024257602060ff6111fd6004356111d9610247565b906000526003845260406000209060018060a01b0316600052602052604060002090565b54166040519015158152f35b3461024257606036600319011261024257602435600435611229826104f1565b6044356001600160401b038111610242576112697f72080e4d0e0b72b4544393a55185e55cf3691ca48e32123c1d6803a03443e6be9136906004016104fb565b90611272612bed565b61067c611289856000526007602052604060002090565b60018101549096906112a5906001600160a01b039081166105cf565b6002870180546112ec91906001600160a01b03168015908190811561135e575b50801561132f575b6112d690612434565b6113155780546001600160a01b03191633179055565b6112f68188612484565b611304848460068a01611a20565b6040519384936005339901856124a8565b3360009081526009602052604090206106ae908990611953565b506000805260036020526112d66113576106ee336000805160206132ad8339815191526106d7565b90506112cd565b6001600160a01b031633149050386112c5565b3461024257600036600319011261024257602060405160008152f35b34610242576040366003190112610242576113a661022c565b5060243580151514611bfb57600080fd5b346102425760003660031901126102425760045460001981019081116113e257602090604051908152f35b611bd6565b3461024257604036600319011261024257610692600435611406610247565b9061142261091f82600052600360205260016040600020015490565b612da2565b909161143e6103b29360408452604084019061037c565b9160208184039101526110ec565b346102425760203660031901126102425761146561022c565b61146e81611dde565b9060018060a01b031660005260096020526040600020906040518083602082955493848152019060005260206000209260005b8181106115235750506114b692500383610743565b6114c082516122d0565b9160005b815181101561151257806114f66114f16114e0600194866121ae565b516000526007602052604060002090565b61208a565b61150082876121ae565b5261150b81866121ae565b50016114c4565b505061044760405192839283611427565b84548352600194850194879450602090930192016114a1565b346102425760003660031901126102425760206040517f6833e94b5193c7a314af51094165d7809e1989f393a17eea242de8d4648282638152f35b3461024257602036600319011261024257600435611593612bac565b8060005260076020526040600020906115b960018060a01b03600184015416151561183f565b81546115cb9060601c60ff16156124e0565b815460ff60601b1916600160601b1782557f6c16b69b06613b3d0d2cb41fe5d6c15b50a79444a2480db9ff79ff83f197e9d26040518061067c339560056006820191018361252f565b3461024257604036600319011261024257602060ff6111fd61163461022c565b61163c610247565b6001600160a01b0391821660009081526001865260408082209290931681526020919091522090565b346102425760003660031901126102425760206040517ffbd454f36a7e1a388bd6fc3ab10d434aa4578f811acbbcf33afb1c697486313c8152f35b346102425760a0366003190112610242576116b961022c565b506108be610247565b346102425760003660031901126102425760206040517f7c6181838a71a779e445600d4c6ecbe16bacf2b3c5bda69c29fada66d1b645d18152f35b6020611716918160405193828580945193849201610359565b8101600881520301902090565b346102425760206102b561173636610c20565b6116fd565b34610242576080366003190112610242576004356001600160401b0381116102425761176b9036906004016104fb565b60243591600983101561024257604435600a81101561024257606435936001600160401b038511610242576117a76106929536906004016104fb565b949093612554565b156117b657565b60405162461bcd60e51b815260206004820152602160248201527f5468697320636f6666656520626174636820646f6573206e6f742065786973746044820152602160f81b6064820152608490fd5b90600182811c92168015611835575b602083101461181f57565b634e487b7160e01b600052602260045260246000fd5b91607f1691611814565b1561184657565b60405162461bcd60e51b8152602060048201526024808201527f5468697320636f66666565206261746368206d757374206265206861727665736044820152637465642160e01b6064820152608490fd5b1561189e57565b60405162461bcd60e51b8152602060048201526024808201527f5468697320636f66666565206261746368206d7573742062652070726f6365736044820152637365642160e01b6064820152608490fd5b156118f657565b60405162461bcd60e51b815260206004820152602b602482015260008051602061328d83398151915260448201526a656e20726f61737465642160a81b6064820152608490fd5b634e487b7160e01b600052603260045260246000fd5b8054906801000000000000000082101561076457600182018082558210156119815760005260206000200155565b61193d565b9061199081610ca4565b815460ff60801b191660809190911b60ff60801b16179055565b906003811015610c7b57815460ff60881b191660889190911b60ff60881b16179055565b601f82116119db57505050565b6000526020600020906020601f840160051c83019310611a16575b601f0160051c01905b818110611a0a575050565b600081556001016119ff565b90915081906119f6565b9092916001600160401b03811161076457611a4581611a3f8454611805565b846119ce565b6000601f8211600114611a86578190611a77939495600092611a7b575b50508160011b916000199060031b1c19161790565b9055565b013590503880611a62565b601f19821694611a9b84600052602060002090565b91805b878110611ad6575083600195969710611abc575b505050811b019055565b0135600019600384901b60f8161c19169055388080611ab2565b90926020600181928686013581550194019101611a9e565b60009291815491611afe83611805565b8083529260018116908115611b545750600114611b1a57505050565b60009081526020812093945091925b838310611b3a575060209250010190565b600181602092949394548385870101520191019190611b29565b915050602093945060ff929192191683830152151560051b010190565b908060209392818452848401376000828201840152601f01601f1916010190565b9060609261077995979694611bb2611bc093608086526080860190611aee565b918483036020860152611b71565b95611bca81610ca4565b60408201520190610cc5565b634e487b7160e01b600052601160045260246000fd5b60001981146113e25760010190565b60405162461bcd60e51b815260206004820181905260248201527f4261746368204e46547320617265206e6f6e2d7472616e7366657261626c65216044820152606490fd5b15611c4757565b60405162461bcd60e51b815260206004820152602260248201527f5468697320636f66666565206261746368206d75737420626520726f61737465604482015261642160f01b6064820152608490fd5b15611c9e57565b60405162461bcd60e51b815260206004820152602f602482015260008051602061328d83398151915260448201526e656e2064697374726962757465642160881b6064820152608490fd5b91611d006103b29492604085526040850190611aee565b926020818503910152611b71565b60405190611d1d602083610743565b60008252565b60405190611d32604083610743565b60068252652330b936b2b960d11b6020830152565b60405190611d56604083610743565b6009825268283937b1b2b9b9b7b960b91b6020830152565b60405190611d7d604083610743565b60078252662937b0b9ba32b960c91b6020830152565b60405190611da2604083610743565b600b82526a2234b9ba3934b13aba37b960a91b6020830152565b60405190611dcb604083610743565b60048252632ab9b2b960e11b6020830152565b60008052600360205260ff611e01826000805160206132ad8339815191526106d7565b5416611f9b577f7c6181838a71a779e445600d4c6ecbe16bacf2b3c5bda69c29fada66d1b645d16000526003602052611e5d6106ee827fda3c6719008d8a83d65ee5d5f016ebf5e4d6f9514636c9c933d55d85fcd374266106d7565b611f92577fe61decff6e4a5c6b5a3d3cbd28f882e595173563b49353ce5f31dba2de7f05ee6000526003602052611eb76106ee827fd64e3e54a870645dbbbb06c8ca5f35bdfb449049cb561e5977c00c5836c9cd326106d7565b611f89577f6833e94b5193c7a314af51094165d7809e1989f393a17eea242de8d4648282636000526003602052611f116106ee827f1b9d1fcffc58acc65f8868ffe423d8dc980481f751bbfc80745b6e3858f896316106d7565b611f80577ffbd454f36a7e1a388bd6fc3ab10d434aa4578f811acbbcf33afb1c697486313c6000526003602052611f6c906106ee907fa857287e3de36733253088980c4a468b775596f21abbc1872f76602475acc5a76106d7565b611f78576103b2611dbc565b6103b2611d93565b506103b2611d6e565b506103b2611d47565b506103b2611d23565b50604051611faa604082610743565b600581526420b236b4b760d91b602082015290565b604051906101c082018281106001600160401b038211176107645760405260606101a08360008152600060208201526000604082015260008382015260006080820152600060a0820152600060c0820152600060e08201526000610100820152600061012082015260006101408201526000610160820152826101808201520152565b6009821015610c7b5752565b600a821015610c7b5752565b610cb882610ca4565b6003821015610c7b5752565b906107796120839260405193848092611aee565b0383610743565b906121a66006612098610769565b9361213e61213582546120c16120b4826001600160401b031690565b6001600160401b03168952565b63ffffffff604082901c1660208901526120e5606082901c60ff16151560408a0152565b6120f9606882901c60ff1660608a01612042565b61210d607082901c60ff1660808a0161204e565b612121607882901c60ff1660a08a0161205a565b610ecc608082901c60ff1660c08a0161205a565b60e08701612063565b60018101546001600160a01b031661010086015260028101546001600160a01b031661012086015260038101546001600160a01b031661014086015260048101546001600160a01b031661016086015261219a6005820161206f565b6101808601520161206f565b6101a0830152565b80518210156119815760209160051b010190565b919091805183518082036122635750508051906121de8261077b565b916121ec6040519384610743565b8083526121fb601f199161077b565b0136602084013760005b815181101561225c578061224b60019260051b60208082870101519189010151906000918252602082815260408084206001600160a01b03909316845291905290205490565b61225582866121ae565b5201612205565b5090925050565b635b05999160e01b60005260045260245260446000fd5b6000198101919082116113e257565b919082039182116113e257565b604051906122a5602083610743565b600080835282815b8281106122b957505050565b6020906122c4611fbf565b828285010152016122ad565b906122da8261077b565b6122e76040519182610743565b82815280926122f8601f199161077b565b019060005b82811061230957505050565b602090612314611fbf565b828285010152016122fd565b90600182018092116113e257565b919082018092116113e257565b919091606483116123fe5761235160045461227a565b92838210156123f257612364908261232e565b928084116123ea575b5061238061237b8285612289565b6122d0565b9160005b61238e8386612289565b8110156123e357826001826123c46114f16123b46123af61238e978761232e565b612320565b6000526007602052604060002090565b6123ce82896121ae565b526123d981886121ae565b5001915050612384565b5092505090565b92503861236d565b505090506103b2612296565b60405162461bcd60e51b815260206004820152600e60248201526d098d2dad2e840e8dede40d0d2ced60931b6044820152606490fd5b1561243b57565b60405162461bcd60e51b815260206004820152602d602482015260008051602061328d83398151915260448201526c656e2070726f6365737365642160981b6064820152608490fd5b9061248e81610ca4565b815460ff60781b191660789190911b60ff60781b16179055565b949392916040926124c46124d293606089526060890190611aee565b918783036020890152611b71565b936124dc83610ca4565b0152565b156124e757565b60405162461bcd60e51b815260206004820152602c602482015260008051602061328d83398151915260448201526b656e2076657269666965642160a01b6064820152608490fd5b90916125466103b293604084526040840190611aee565b916020818403910152611aee565b9192937fa2f86d05ea197a406c3babde961a05fa3b8037eace8041321e07a17cae0a65f1906107799692612586612c5f565b61259a6125938287612723565b541561273c565b6126b86004549788956126566125ae610769565b6001600160401b03891681524263ffffffff166020820152600060408201526125da8b60608301612042565b6125e7846080830161204e565b600460a0820152600460c0820152600160e08201523361010082015260006101208201526000610140820152600061016082015261262636878c61080a565b61018082015261263736848961080a565b6101a0820152612651896000526007602052604060002090565b6128a6565b86612661858a612723565b5533600090815260096020526040902061267c908890611953565b336000908152600a6020526040902061269c90612698906106ee565b1590565b6126eb575b6126aa89610c71565b604051948594339986612a43565b0390a46126ce6126c9600454611bec565b600455565b6126dc61068d600554611bec565b6126e4611d0e565b9033612e2d565b336000908152600a6020526040902061270b90805460ff19166001179055565b61271e612719600654611bec565b600655565b6126a1565b6020908260405193849283378101600881520301902090565b1561274357565b60405162461bcd60e51b815260206004820152602860248201527f5468697320636f66666565206261746368206e756d62657220616c7265616479604482015267206578697374732160c01b6064820152608490fd5b906009811015610c7b57815460ff60681b191660689190911b60ff60681b16179055565b90600a811015610c7b57815460ff60701b191660709190911b60ff60701b16179055565b91909182516001600160401b0381116107645761280281611a3f8454611805565b6020601f821160011461283e578190611a779394956000926128335750508160011b916000199060031b1c19161790565b015190503880611a62565b601f1982169061285384600052602060002090565b9160005b81811061288e5750958360019596971061287557505050811b019055565b015160001960f88460031b161c19169055388080611ab2565b9192602060018192868b015181550194019201612857565b60066101a0610779936128e06128c382516001600160401b031690565b855467ffffffffffffffff19166001600160401b03909116178555565b61291e6128f4602083015163ffffffff1690565b85546bffffffff0000000000000000191660409190911b6bffffffff000000000000000016178555565b61294861292e6040830151151590565b855460ff60601b191690151560601b60ff60601b16178555565b61295f606082015161295981610c71565b85612799565b612976608082015161297081610c8d565b856127bd565b61298d60a082015161298781610ca4565b85612484565b6129a460c082015161299e81610ca4565b85611986565b6129bb60e08201516129b581610cbb565b856119aa565b6101008101516001850180546001600160a01b039283166001600160a01b031991821617909155610120830151600287018054918416918316919091179055610140830151600387018054918416918316919091179055610160830151600487018054919093169116179055610180810151612a3a90600586016127e1565b015191016127e1565b95949261077994612a62612a709360409560608b5260608b0191611b71565b9188830360208a0152611b71565b940190610c97565b60405162461bcd60e51b815260206004820152602260248201527f436f6e747261637420646f6573206e6f7420616363657074207061796d656e74604482015261732160f01b6064820152608490fd5b3360009081527f1b9d1fcffc58acc65f8868ffe423d8dc980481f751bbfc80745b6e3858f89631602052604090205460ff1615612b0157565b63e2517d3f60e01b600052336004527f6833e94b5193c7a314af51094165d7809e1989f393a17eea242de8d46482826360245260446000fd5b3360009081527fa857287e3de36733253088980c4a468b775596f21abbc1872f76602475acc5a7602052604090205460ff1615612b7357565b63e2517d3f60e01b600052336004527ffbd454f36a7e1a388bd6fc3ab10d434aa4578f811acbbcf33afb1c697486313c60245260446000fd5b3360009081526000805160206132ad833981519152602052604090205460ff1615612bd357565b63e2517d3f60e01b60005233600452600060245260446000fd5b3360009081527fd64e3e54a870645dbbbb06c8ca5f35bdfb449049cb561e5977c00c5836c9cd32602052604090205460ff1615612c2657565b63e2517d3f60e01b600052336004527fe61decff6e4a5c6b5a3d3cbd28f882e595173563b49353ce5f31dba2de7f05ee60245260446000fd5b3360009081527fda3c6719008d8a83d65ee5d5f016ebf5e4d6f9514636c9c933d55d85fcd37426602052604090205460ff1615612c9857565b63e2517d3f60e01b600052336004527f7c6181838a71a779e445600d4c6ecbe16bacf2b3c5bda69c29fada66d1b645d160245260446000fd5b600081815260036020908152604080832033845290915290205460ff1615612cf65750565b63e2517d3f60e01b6000523360045260245260446000fd5b60008181526003602090815260408083206001600160a01b038616845290915290205460ff16612d9b5760008181526003602090815260408083206001600160a01b03861684529091529020805460ff1916600117905533916001600160a01b0316907f2f8788117e7eff1d82e926ec794901d17c78024a50270940304540a733656f0d600080a4600190565b5050600090565b60008181526003602090815260408083206001600160a01b038616845290915290205460ff1615612d9b5760008181526003602090815260408083206001600160a01b03861684529091529020805460ff1916905533916001600160a01b0316907ff6391f5c32d9c69d2a47ea670b442974b53935d1edc7fd64eb21e047a839171b600080a4600190565b91926001600160a01b03831692918315612fe25760405194600186526020860191825260408601600181526060870190600182526080880180604052308814612fa057508751815190818103612f8957505060005b8851811015612ec9578060019160051b8a01612ec1612eb98a6106d760606020860151950151946000526000602052604060002090565b91825461232e565b905501612e82565b50919493969092956001825114600014612f4d57600087517fc3d58168c5ae7397731d063d5bbf3d657854427343f4c083240f7aacaa2d0f62612f22875160405191829133958360209093929193604081019481520152565b0390a45b8051600103612f3f5750506107799351905191336131c6565b915091610779945033613090565b60006040517f4a39dc06d4c0dbc64b70af90fd698a233a518aa5d07e595d983b8c0526c8f7fb339180612f81888883613267565b0390a4612f26565b635b05999160e01b60005260045260245260446000fd5b62461bcd60e51b8152602060848a0181905260a48a01527f4261746368204e46547320617265206e6f6e2d7472616e7366657261626c652160c48a0152606490fd5b632bfa23e760e11b600052600060045260246000fd5b9081602091031261024257516103b2816102be565b6001600160a01b0391821681529116602082015260a0604082018190526103b2949193919261305292916130449190860190610f8f565b908482036060860152610f8f565b91608081840391015261037c565b3d1561308b573d90613071826107ef565b9161307f6040519384610743565b82523d6000602084013e565b606090565b939093929192843b6130a4575b5050505050565b6130c8600092602094604051968795869563bc197c8160e01b87526004870161300d565b038160006001600160a01b0387165af16000918161315c575b5061311d57506130ef613060565b805191908261311657632bfa23e760e11b6000526001600160a01b03821660045260246000fd5b9050602001fd5b6001600160e01b0319166343e6837f60e01b0161313f5750388080808061309d565b632bfa23e760e11b6000526001600160a01b031660045260246000fd5b61317f91925060203d602011613186575b6131778183610743565b810190612ff8565b90386130e1565b503d61316d565b6001600160a01b039182168152911660208201526040810191909152606081019190915260a0608082018190526103b29291019061037c565b939093929192843b6131d9575050505050565b6131fd600092602094604051968795869563f23a6e6160e01b87526004870161318d565b038160006001600160a01b0387165af160009181613246575b5061322457506130ef613060565b6001600160e01b031916630dc5919f60e01b0161313f5750388080808061309d565b61326091925060203d602011613186576131778183610743565b9038613216565b909161327e6103b293604084526040840190610f8f565b916020818403910152610f8f56fe5468697320636f666665652062617463682068617320616c72656164792062653617319a054d772f909f7c479a2cebe5066e836a939412e32403c99029b92effa2646970667358221220f8b9699a1b44ad3bc665f63cac94a258457e3b1961b255ab9759894132b0293764736f6c634300081e00332f8788117e7eff1d82e926ec794901d17c78024a50270940304540a733656f0da857287e3de36733253088980c4a468b775596f21abbc1872f76602475acc5a7d64e3e54a870645dbbbb06c8ca5f35bdfb449049cb561e5977c00c5836c9cd321b9d1fcffc58acc65f8868ffe423d8dc980481f751bbfc80745b6e3858f896313617319a054d772f909f7c479a2cebe5066e836a939412e32403c99029b92eff",
  "devdoc": {
    "errors": {
      "AccessControlBadConfirmation()": [
        {
          "details": "The caller of a function is not the expected one. NOTE: Don't confuse with {AccessControlUnauthorizedAccount}."
        }
      ],
      "AccessControlUnauthorizedAccount(address,bytes32)": [
        {
          "details": "The `account` is missing a role."
        }
      ],
      "ERC1155InsufficientBalance(address,uint256,uint256,uint256)": [
        {
          "details": "Indicates an error related to the current `balance` of a `sender`. Used in transfers.",
          "params": {
            "balance": "Current balance for the interacting account.",
            "needed": "Minimum amount required to perform a transfer.",
            "sender": "Address whose tokens are being transferred.",
            "tokenId": "Identifier number of a token."
          }
        }
      ],
      "ERC1155InvalidApprover(address)": [
        {
          "details": "Indicates a failure with the `approver` of a token to be approved. Used in approvals.",
          "params": {
            "approver": "Address initiating an approval operation."
          }
        }
      ],
      "ERC1155InvalidArrayLength(uint256,uint256)": [
        {
          "details": "Indicates an array length mismatch between ids and values in a safeBatchTransferFrom operation. Used in batch transfers.",
          "params": {
            "idsLength": "Length of the array of token identifiers",
            "valuesLength": "Length of the array of token amounts"
          }
        }
      ],
      "ERC1155InvalidOperator(address)": [
        {
          "details": "Indicates a failure with the `operator` to be approved. Used in approvals.",
          "params": {
            "operator": "Address that may be allowed to operate on tokens without being their owner."
          }
        }
      ],
      "ERC1155InvalidReceiver(address)": [
        {
          "details": "Indicates a failure with the token `receiver`. Used in transfers.",
          "params": {
            "receiver": "Address to which tokens are being transferred."
          }
        }
      ],
      "ERC1155InvalidSender(address)": [
        {
          "details": "Indicates a failure with the token `sender`. Used in transfers.",
          "params": {
            "sender": "Address whose tokens are being transferred."
          }
        }
      ],
      "ERC1155MissingApprovalForAll(address,address)": [
        {
          "details": "Indicates a failure with the `operator`’s approval. Used in transfers.",
          "params": {
            "operator": "Address that may be allowed to operate on tokens without being their owner.",
            "owner": "Address of the current owner of a token."
          }
        }
      ]
    },
    "events": {
      "ApprovalForAll(address,address,bool)": {
        "details": "Emitted when `account` grants or revokes permission to `operator` to transfer their tokens, according to `approved`."
      },
      "RoleAdminChanged(bytes32,bytes32,bytes32)": {
        "details": "Emitted when `newAdminRole` is set as ``role``'s admin role, replacing `previousAdminRole` `DEFAULT_ADMIN_ROLE` is the starting admin for all roles, despite {RoleAdminChanged} not being emitted signaling this."
      },
      "RoleGranted(bytes32,address,address)": {
        "details": "Emitted when `account` is granted `role`. `sender` is the account that originated the contract call, an admin role bearer except when using {AccessControl-_setupRole}."
      },
      "RoleRevoked(bytes32,address,address)": {
        "details": "Emitted when `account` is revoked `role`. `sender` is the account that originated the contract call:   - if using `revokeRole`, it is the admin role bearer   - if using `renounceRole`, it is the role bearer (i.e. `account`)"
      },
      "TransferBatch(address,address,address,uint256[],uint256[])": {
        "details": "Equivalent to multiple {TransferSingle} events, where `operator`, `from` and `to` are the same for all transfers."
      },
      "TransferSingle(address,address,address,uint256,uint256)": {
        "details": "Emitted when `value` amount of tokens of type `id` are transferred from `from` to `to` by `operator`."
      },
      "URI(string,uint256)": {
        "details": "Emitted when the URI for token type `id` changes to `value`, if it is a non-programmatic URI. If an {URI} event was emitted for `id`, the standard https://eips.ethereum.org/EIPS/eip-1155#metadata-extensions[guarantees] that `value` will equal the value returned by {IERC1155MetadataURI-uri}."
      }
    },
    "kind": "dev",
    "methods": {
      "balanceOf(address,uint256)": {
        "details": "See {IERC1155-balanceOf}."
      },
      "balanceOfBatch(address[],uint256[])": {
        "details": "See {IERC1155-balanceOfBatch}. Requirements: - `accounts` and `ids` must have the same length."
      },
      "getRoleAdmin(bytes32)": {
        "details": "Returns the admin role that controls `role`. See {grantRole} and {revokeRole}. To change a role's admin, use {_setRoleAdmin}."
      },
      "grantRole(bytes32,address)": {
        "details": "Grants `role` to `account`. If `account` had not been already granted `role`, emits a {RoleGranted} event. Requirements: - the caller must have ``role``'s admin role. May emit a {RoleGranted} event."
      },
      "hasRole(bytes32,address)": {
        "details": "Returns `true` if `account` has been granted `role`."
      },
      "isApprovedForAll(address,address)": {
        "details": "See {IERC1155-isApprovedForAll}."
      },
      "renounceRole(bytes32,address)": {
        "details": "Revokes `role` from the calling account. Roles are often managed via {grantRole} and {revokeRole}: this function's purpose is to provide a mechanism for accounts to lose their privileges if they are compromised (such as when a trusted device is misplaced). If the calling account had been revoked `role`, emits a {RoleRevoked} event. Requirements: - the caller must be `callerConfirmation`. May emit a {RoleRevoked} event."
      },
      "revokeRole(bytes32,address)": {
        "details": "Revokes `role` from `account`. If `account` had been granted `role`, emits a {RoleRevoked} event. Requirements: - the caller must have ``role``'s admin role. May emit a {RoleRevoked} event."
      }
    },
    "version": 1
  },
  "userdoc": {
    "kind": "user",
    "methods": {},
    "version": 1
  },
  "storageLayout": {
    "storage": [
      {
        "astId": 557,
        "contract": "contracts/CoffeeTracker.sol:CoffeeTracker",
        "label": "_balances",
        "offset": 0,
        "slot": "0",
        "type": "t_mapping(t_uint256,t_mapping(t_address,t_uint256))"
      },
      {
        "astId": 563,
        "contract": "contracts/CoffeeTracker.sol:CoffeeTracker",
        "label": "_operatorApprovals",
        "offset": 0,
        "slot": "1",
        "type": "t_mapping(t_address,t_mapping(t_address,t_bool))"
      },
      {
        "astId": 565,
        "contract": "contracts/CoffeeTracker.sol:CoffeeTracker",
        "label": "_uri",
        "offset": 0,
        "slot": "2",
        "type": "t_string_storage"
      },
      {
        "astId": 26,
        "contract": "contracts/CoffeeTracker.sol:CoffeeTracker",
        "label": "_roles",
        "offset": 0,
        "slot": "3",
        "type": "t_mapping(t_bytes32,t_struct(RoleData)21_storage)"
      },
      {
        "astId": 3192,
        "contract": "contracts/CoffeeTracker.sol:CoffeeTracker",
        "label": "_batchIdCounter",
        "offset": 0,
        "slot": "4",
        "type": "t_uint256"
      },
      {
        "astId": 3194,
        "contract": "contracts/CoffeeTracker.sol:CoffeeTracker",
        "label": "_transactionCount",
        "offset": 0,
        "slot": "5",
        "type": "t_uint256"
      },
      {
        "astId": 3196,
        "contract": "contracts/CoffeeTracker.sol:CoffeeTracker",
        "label": "_farmCount",
        "offset": 0,
        "slot": "6",
        "type": "t_uint256"
      },
      {
        "astId": 3272,
        "contract": "contracts/CoffeeTracker.sol:CoffeeTracker",
        "label": "batches",
        "offset": 0,
        "slot": "7",
        "type": "t_mapping(t_uint256,t_struct(CoffeeBatch)3267_storage)"
      },
      {
        "astId": 3276,
        "contract": "contracts/CoffeeTracker.sol:CoffeeTracker",
        "label": "batchNumberToId",
        "offset": 0,
        "slot": "8",
        "type": "t_mapping(t_string_memory_ptr,t_uint256)"
      },
      {
        "astId": 3281,
        "contract": "contracts/CoffeeTracker.sol:CoffeeTracker",
        "label": "userBatches",
        "offset": 0,
        "slot": "9",
        "type": "t_mapping(t_address,t_array(t_uint256)dyn_storage)"
      },
      {
        "astId": 3285,
        "contract": "contracts/CoffeeTracker.sol:CoffeeTracker",
        "label": "registeredFarms",
        "offset": 0,
        "slot": "10",
        "type": "t_mapping(t_address,t_bool)"
      }
    ],
    "types": {
      "t_address": {
        "encoding": "inplace",
        "label": "address",
        "numberOfBytes": "20"
      },
      "t_array(t_uint256)dyn_storage": {
        "base": "t_uint256",
        "encoding": "dynamic_array",
        "label": "uint256[]",
        "numberOfBytes": "32"
      },
      "t_bool": {
        "encoding": "inplace",
        "label": "bool",
        "numberOfBytes": "1"
      },
      "t_bytes32": {
        "encoding": "inplace",
        "label": "bytes32",
        "numberOfBytes": "32"
      },
      "t_enum(ProcessingMethod)3223": {
        "encoding": "inplace",
        "label": "enum CoffeeTracker.ProcessingMethod",
        "numberOfBytes": "1"
      },
      "t_enum(Region)3206": {
        "encoding": "inplace",
        "label": "enum CoffeeTracker.Region",
        "numberOfBytes": "1"
      },
      "t_enum(RoastLevel)3233": {
        "encoding": "inplace",
        "label": "enum CoffeeTracker.RoastLevel",
        "numberOfBytes": "1"
      },
      "t_enum(RoastingMethod)3229": {
        "encoding": "inplace",
        "label": "enum CoffeeTracker.RoastingMethod",
        "numberOfBytes": "1"
      },
      "t_enum(Variety)3217": {
        "encoding": "inplace",
        "label": "enum CoffeeTracker.Variety",
        "numberOfBytes": "1"
      },
      "t_mapping(t_address,t_array(t_uint256)dyn_storage)": {
        "encoding": "mapping",
        "key": "t_address",
        "label": "mapping(address => uint256[])",
        "numberOfBytes": "32",
        "value": "t_array(t_uint256)dyn_storage"
      },
      "t_mapping(t_address,t_bool)": {
        "encoding": "mapping",
        "key": "t_address",
        "label": "mapping(address => bool)",
        "numberOfBytes": "32",
        "value": "t_bool"
      },
      "t_mapping(t_address,t_mapping(t_address,t_bool))": {
        "encoding": "mapping",
        "key": "t_address",
        "label": "mapping(address => mapping(address => bool))",
        "numberOfBytes": "32",
        "value": "t_mapping(t_address,t_bool)"
      },
      "t_mapping(t_address,t_uint256)": {
        "encoding": "mapping",
        "key": "t_address",
        "label": "mapping(address => uint256)",
        "numberOfBytes": "32",
        "value": "t_uint256"
      },
      "t_mapping(t_bytes32,t_struct(RoleData)21_storage)": {
        "encoding": "mapping",
        "key": "t_bytes32",
        "label": "mapping(bytes32 => struct AccessControl.RoleData)",
        "numberOfBytes": "32",
        "value": "t_struct(RoleData)21_storage"
      },
      "t_mapping(t_string_memory_ptr,t_uint256)": {
        "encoding": "mapping",
        "key": "t_string_memory_ptr",
        "label": "mapping(string => uint256)",
        "numberOfBytes": "32",
        "value": "t_uint256"
      },
      "t_mapping(t_uint256,t_mapping(t_address,t_uint256))": {
        "encoding": "mapping",
        "key": "t_uint256",
        "label": "mapping(uint256 => mapping(address => uint256))",
        "numberOfBytes": "32",
        "value": "t_mapping(t_address,t_uint256)"
      },
      "t_mapping(t_uint256,t_struct(CoffeeBatch)3267_storage)": {
        "encoding": "mapping",
        "key": "t_uint256",
        "label": "mapping(uint256 => struct CoffeeTracker.CoffeeBatch)",
        "numberOfBytes": "32",
        "value": "t_struct(CoffeeBatch)3267_storage"
      },
      "t_string_memory_ptr": {
        "encoding": "bytes",
        "label": "string",
        "numberOfBytes": "32"
      },
      "t_string_storage": {
        "encoding": "bytes",
        "label": "string",
        "numberOfBytes": "32"
      },
      "t_struct(CoffeeBatch)3267_storage": {
        "encoding": "inplace",
        "label": "struct CoffeeTracker.CoffeeBatch",
        "members": [
          {
            "astId": 3235,
            "contract": "contracts/CoffeeTracker.sol:CoffeeTracker",
            "label": "batchId",
            "offset": 0,
            "slot": "0",
            "type": "t_uint64"
          },
          {
            "astId": 3237,
            "contract": "contracts/CoffeeTracker.sol:CoffeeTracker",
            "label": "mintTimestamp",
            "offset": 8,
            "slot": "0",
            "type": "t_uint32"
          },
          {
            "astId": 3239,
            "contract": "contracts/CoffeeTracker.sol:CoffeeTracker",
            "label": "verified",
            "offset": 12,
            "slot": "0",
            "type": "t_bool"
          },
          {
            "astId": 3242,
            "contract": "contracts/CoffeeTracker.sol:CoffeeTracker",
            "label": "region",
            "offset": 13,
            "slot": "0",
            "type": "t_enum(Region)3206"
          },
          {
            "astId": 3245,
            "contract": "contracts/CoffeeTracker.sol:CoffeeTracker",
            "label": "variety",
            "offset": 14,
            "slot": "0",
            "type": "t_enum(Variety)3217"
          },
          {
            "astId": 3248,
            "contract": "contracts/CoffeeTracker.sol:CoffeeTracker",
            "label": "processingMethod",
            "offset": 15,
            "slot": "0",
            "type": "t_enum(ProcessingMethod)3223"
          },
          {
            "astId": 3251,
            "contract": "contracts/CoffeeTracker.sol:CoffeeTracker",
            "label": "roastingMethod",
            "offset": 16,
            "slot": "0",
            "type": "t_enum(RoastingMethod)3229"
          },
          {
            "astId": 3254,
            "contract": "contracts/CoffeeTracker.sol:CoffeeTracker",
            "label": "roastLevel",
            "offset": 17,
            "slot": "0",
            "type": "t_enum(RoastLevel)3233"
          },
          {
            "astId": 3256,
            "contract": "contracts/CoffeeTracker.sol:CoffeeTracker",
            "label": "farmer",
            "offset": 0,
            "slot": "1",
            "type": "t_address"
          },
          {
            "astId": 3258,
            "contract": "contracts/CoffeeTracker.sol:CoffeeTracker",
            "label": "processor",
            "offset": 0,
            "slot": "2",
            "type": "t_address"
          },
          {
            "astId": 3260,
            "contract": "contracts/CoffeeTracker.sol:CoffeeTracker",
            "label": "roaster",
            "offset": 0,
            "slot": "3",
            "type": "t_address"
          },
          {
            "astId": 3262,
            "contract": "contracts/CoffeeTracker.sol:CoffeeTracker",
            "label": "distributor",
            "offset": 0,
            "slot": "4",
            "type": "t_address"
          },
          {
            "astId": 3264,
            "contract": "contracts/CoffeeTracker.sol:CoffeeTracker",
            "label": "batchNumber",
            "offset": 0,
            "slot": "5",
            "type": "t_string_storage"
          },
          {
            "astId": 3266,
            "contract": "contracts/CoffeeTracker.sol:CoffeeTracker",
            "label": "metadataCID",
            "offset": 0,
            "slot": "6",
            "type": "t_string_storage"
          }
        ],
        "numberOfBytes": "224"
      },
      "t_struct(RoleData)21_storage": {
        "encoding": "inplace",
        "label": "struct AccessControl.RoleData",
        "members": [
          {
            "astId": 18,
            "contract": "contracts/CoffeeTracker.sol:CoffeeTracker",
            "label": "hasRole",
            "offset": 0,
            "slot": "0",
            "type": "t_mapping(t_address,t_bool)"
          },
          {
            "astId": 20,
            "contract": "contracts/CoffeeTracker.sol:CoffeeTracker",
            "label": "adminRole",
            "offset": 0,
            "slot": "1",
            "type": "t_bytes32"
          }
        ],
        "numberOfBytes": "64"
      },
      "t_uint256": {
        "encoding": "inplace",
        "label": "uint256",
        "numberOfBytes": "32"
      },
      "t_uint32": {
        "encoding": "inplace",
        "label": "uint32",
        "numberOfBytes": "4"
      },
      "t_uint64": {
        "encoding": "inplace",
        "label": "uint64",
        "numberOfBytes": "8"
      }
    }
  }
}